:020000040800F2
:10000000000003206D100008793500087B350008DA
:100010007D3500087F3500088135000800000000AC
:1000200000000000000000000000000001F70008D0
:10003000833500080000000091F70008F5F700087C
:10004000BD100008BD100008BD100008BD1000085C
:10005000BD100008BD100008BD100008BD1000084C
:10006000BD100008BD100008BD100008BD1000083C
:10007000BD100008BD100008BD100008BD1000082C
:10008000BD100008BD100008BD100008BD1000081C
:10009000BD100008BD100008BD100008BD1000080C
:1000A000BD100008BD100008BD100008BD100008FC
:1000B000BD100008BD100008BD100008BD100008EC
:1000C000BD100008BD100008BD100008BD100008DC
:1000D000BD10000885350008BD100008BD100008DF
:1000E000BD100008BD100008BD100008BD100008BC
:1000F000BD100008BD100008BD100008BD100008AC
:10010000BD100008BD100008BD100008BD1000089B
:10011000BD100008BD10000891350008BD10000892
:100120009D350008BD100008A9350008BD10000865
:10013000BD100008BD100008BD100008BD1000086B
:10014000BD100008BD100008BD100008BD1000085B
:10015000BD100008BD100008B5350008BD1000082E
:10016000BD100008BD100008BD100008BD1000083B
:10017000BD100008BD100008BD1000080000000000
:10018000BD100008BD100008BD100008BD1000081B
:10019000BD100008BD100008BD100008BD1000080B
:0C01A000C1350008BD100008CD35000876
:1001B00010B5054C237833B9044B13B10448AFF3A1
:1001C00000800123237010BDE80200200000000021
:1001D0001CEC020808B5034B1BB103490348AFF3FD
:1001E000008008BD00000000EC0200201CEC0208AA
:1001F0004B1C012B98BF70472DE9F003911C9B0805
:10020000B1F80480B1F802900A8831F802CC804439
:10021000814402448444D9F80070D8F8006015681D
:10022000DCF80040C9F80060C8F80070CCF8005055
:100230001460D9F80470D8F804605568DCF80440FC
:10024000C9F80460C8F80470CCF804505460083150
:10025000013BD5D1BDE8F00370474B1C012B98BF83
:1002600070472DE9F003911C9B08B1F80480B1F8A8
:1002700002900A8831F802CC00EB580800EB5909CB
:1002800000EB520200EB5C0CD9F80070D8F800606B
:100290001568DCF80040C9F80060C8F80070CCF8B8
:1002A000005014600831013BDFD1BDE8F003704716
:1002B000034613F8012B002AFBD1181A01387047A6
:1002C00001F0FF01102A2BDB10F0070F08D010F807
:1002D000013B013A8B422DD010F0070F42B3F6D10B
:1002E000F0B441EA012141EA014122F007047FF024
:1002F00000070023F0E80256083C85EA010586EA7B
:10030000010685FA47F5A3FA87F586FA47F6A5FAB6
:1003100087F68EB9EED1F0BC01F0FF0102F00702C2
:1003200032B110F8013B013A83EA010313B1F8D16D
:100330000020704701387047002D06BF354603384E
:10034000073815F0010F07D1013015F4807F02BF87
:10035000013015F4C03F0130F0BC0138704700BFD8
:1003600081F0004102E000BF83F0004330B54FEA66
:1003700041044FEA430594EA050F08BF90EA020FD3
:100380001FBF54EA000C55EA020C7FEA645C7FEA66
:10039000655C00F0E2804FEA5454D4EB5555B8BF89
:1003A0006D420CDD2C4480EA020281EA030382EAFA
:1003B000000083EA010180EA020281EA0303362D8C
:1003C00088BF30BD11F0004F4FEA01314FF4801C5F
:1003D0004CEA113102D0404261EB410113F0004F71
:1003E0004FEA03334CEA133302D0524263EB430328
:1003F00094EA050F00F0A780A4F10104D5F1200EC6
:100400000DDB02FA0EFC22FA05F2801841F1000120
:1004100003FA0EF2801843FA05F359410EE0A5F1F4
:1004200020050EF1200E012A03FA0EFC28BF4CF025
:10043000020C43FA05F3C01851EBE37101F00045DB
:1004400007D54FF0000EDCF1000C7EEB00006EEBE8
:100450000101B1F5801F1BD3B1F5001F0CD3490872
:100460005FEA30004FEA3C0C04F101044FEA4452C9
:1004700012F5800F80F09A80BCF1004F08BF5FEA50
:10048000500C50F1000041EB045141EA050130BD30
:100490005FEA4C0C404141EB0101013C28BFB1F542
:1004A000801FE9D291F0000F04BF01460020B1FA8D
:1004B00081F308BF2033A3F10B03B3F120020CDA60
:1004C0000C3208DD02F1140CC2F10C0201FA0CF03E
:1004D00021FA02F10CE002F11402D8BFC2F1200CA3
:1004E00001FA02F120FA0CFCDCBF41EA0C01904059
:1004F000E41AA2BF01EB0451294330BD6FEA0404A2
:100500001F3C1CDA0C340EDC04F11404C4F120028C
:1005100020FA04F001FA02F340EA030021FA04F39E
:1005200045EA030130BDC4F10C04C4F1200220FAF5
:1005300002F001FA04F340EA0300294630BD21FA33
:1005400004F0294630BD94F0000F83F4801306BFF9
:1005500081F480110134013D4EE77FEA645C18BFED
:100560007FEA655C29D094EA050F08BF90EA020F84
:1005700005D054EA000C04BF1946104630BD91EA7C
:10058000030F1EBF0021002030BD5FEA545C05D17F
:100590004000494128BF41F0004130BD14F58004BE
:1005A0003CBF01F5801130BD01F0004545F0FE4132
:1005B00041F470014FF0000030BD7FEA645C1ABF67
:1005C000194610467FEA655C1CBF0B46024650EA9E
:1005D000013406BF52EA033591EA030F41F40021CA
:1005E00030BD00BF90F0000F04BF0021704730B550
:1005F0004FF4806404F132044FF000054FF0000125
:1006000050E700BF90F0000F04BF0021704730B5E5
:100610004FF4806404F1320410F0004548BF4042BA
:100620004FF000013EE700BF42004FEAE2014FEA0F
:1006300031014FEA02701FBF12F07F4393F07F4FEA
:1006400081F06051704732F07F4208BF704793F0ED
:100650007F4F04BF41F40021704730B54FF4607400
:1006600001F0004521F000411CE700BF50EA010203
:1006700008BF704730B54FF000050AE050EA0102AC
:1006800008BF704730B511F0004502D5404261EB1C
:1006900041014FF4806404F132045FEA915C3FF45D
:1006A000D8AE4FF003025FEADC0C18BF03325FEAFA
:1006B000DC0C18BF033202EBDC02C2F1200300FAAB
:1006C00003FC20FA02F001FA03FE40EA0E0021FAD0
:1006D00002F11444BDE600BF70B54FF0FF0C4CF4BE
:1006E000E06C1CEA11541DBF1CEA135594EA0C0F70
:1006F00095EA0C0F00F0DEF82C4481EA030621EAAB
:100700004C5123EA4C5350EA013518BF52EA0335E5
:1007100041F4801143F4801338D0A0FB02CE4FF097
:100720000005E1FB02E506F00042E0FB03E54FF0C7
:100730000006E1FB03569CF0000F18BF4EF0010EBF
:10074000A4F1FF04B6F5007F64F5407404D25FEABB
:100750004E0E6D4146EB060642EAC62141EA55516E
:100760004FEAC52040EA5E504FEACE2EB4F1FD0CB0
:1007700088BFBCF5E06F1ED8BEF1004F08BF5FEA2E
:10078000500E50F1000041EB045170BD06F00046E0
:1007900046EA010140EA020081EA0301B4EB5C048D
:1007A000C2BFD4EB0C0541EA045170BD41F4801185
:1007B0004FF0000E013C00F3AB8014F1360FDEBFAA
:1007C000002001F0004170BDC4F10004203C35DA86
:1007D0000C341BDC04F11404C4F1200500FA05F309
:1007E00020FA04F001FA05F240EA020001F00042AA
:1007F00021F0004110EBD37021FA04F642EB060120
:100800005EEA430E08BF20EAD37070BDC4F10C0449
:10081000C4F1200500FA04F320FA05F001FA04F20D
:1008200040EA020001F0004110EBD37041F10001F9
:100830005EEA430E08BF20EAD37070BDC4F1200504
:1008400000FA05F24EEA020E20FA04F301FA05F26C
:1008500043EA020321FA04F001F0004121FA04F214
:1008600020EA020000EBD3705EEA430E08BF20EAE4
:10087000D37070BD94F0000F0FD101F0004640001E
:1008800041EB010111F4801F08BF013CF7D041EAA0
:10089000060195F0000F18BF704703F000465200A4
:1008A00043EB030313F4801F08BF013DF7D043EA75
:1008B0000603704794EA0C0F0CEA135518BF95EA2B
:1008C0000C0F0CD050EA410618BF52EA4306D1D1B2
:1008D00081EA030101F000414FF0000070BD50EAD1
:1008E000410606BF1046194652EA430619D094EA5B
:1008F0000C0F02D150EA013613D195EA0C0F05D145
:1009000052EA03361CBF104619460AD181EA030198
:1009100001F0004141F0FE4141F470014FF0000050
:1009200070BD41F0FE4141F4780170BD70B54FF0EB
:10093000FF0C4CF4E06C1CEA11541DBF1CEA13556B
:1009400094EA0C0F95EA0C0F00F0A7F8A4EB05044D
:1009500081EA030E52EA03354FEA013100F0888044
:100960004FEA03334FF0805545EA131343EA12630D
:100970004FEA022245EA111545EA10654FEA0026C2
:100980000EF000419D4208BF964244F1FD0404F57B
:10099000407402D25B084FEA3202B61A65EB0305D7
:1009A0005B084FEA32024FF480104FF4002CB6EB94
:1009B000020E75EB030E22BFB61A754640EA0C0014
:1009C0005B084FEA3202B6EB020E75EB030E22BF54
:1009D000B61A754640EA5C005B084FEA3202B6EB95
:1009E000020E75EB030E22BFB61A754640EA9C0054
:1009F0005B084FEA3202B6EB020E75EB030E22BF24
:100A0000B61A754640EADC0055EA060E18D04FEAE1
:100A1000051545EA16754FEA06164FEAC30343EA81
:100A200052734FEAC2025FEA1C1CC0D111F4801F4E
:100A30000BD141EA00014FF000004FF0004CB6E747
:100A400011F4801F04BF01430020B4F1FD0C88BFE6
:100A5000BCF5E06F3FF6AFAEB5EB030C04BFB6EBF1
:100A6000020C5FEA500C50F1000041EB045170BDE4
:100A70000EF0004E4EEA113114EB5C04C2BFD4EB11
:100A80000C0541EA045170BD41F480114FF0000E95
:100A9000013C90E645EA060E8DE60CEA135594EA11
:100AA0000C0F08BF95EA0C0F3FF43BAF94EA0C0F14
:100AB0000AD150EA01347FF434AF95EA0C0F7FF489
:100AC00025AF104619462CE795EA0C0F06D152EADD
:100AD00003353FF4FDAE1046194622E750EA4106C1
:100AE00018BF52EA43067FF4C5AE50EA41047FF4D2
:100AF0000DAF52EA43057FF4EBAE12E74FF0FF3C37
:100B000006E000BF4FF0010C02E000BF4FF0010C07
:100B10004DF804CD4FEA410C7FEA6C5C4FEA430C80
:100B200018BF7FEA6C5C1BD001B050EA410C0CBFCF
:100B300052EA430C91EA030F02BF90EA020F002031
:100B4000704710F1000F91EA030F58BF994208BF98
:100B500090422CBFD8176FEAE37040F00100704755
:100B60004FEA410C7FEA6C5C02D150EA013C07D1AC
:100B70004FEA430C7FEA6C5CD6D152EA033CD3D0F7
:100B80005DF8040B704700BF8446104662468C46F1
:100B90001946634600E000BF01B5FFF7B7FF002824
:100BA00048BF10F1000F01BD4DF808EDFFF7F4FF4D
:100BB0000CBF012000205DF808FB00BF4DF808EDD8
:100BC000FFF7EAFF34BF012000205DF808FB00BFFB
:100BD0004DF808EDFFF7E0FF94BF012000205DF81D
:100BE00008FB00BF4DF808EDFFF7CEFF94BF0120D2
:100BF00000205DF808FB00BF4DF808EDFFF7C4FFCB
:100C000034BF012000205DF808FB00BF4FEA410C13
:100C10007FEA6C5C02D150EA013C0AD14FEA430CF6
:100C20007FEA6C5C02D152EA033C02D14FF0000033
:100C300070474FF0010070474FEA410212F5001271
:100C400015D211D56FF47873B3EB625212D94FEA13
:100C5000C12343F0004343EA505311F0004F23FAFD
:100C600002F018BF404270474FF00000704750EA52
:100C7000013005D111F0004008BF6FF0004070470F
:100C80004FF00000704700BF4A0011D212F5001269
:100C900011D20DD56FF47873B3EB62520ED44FEAD4
:100CA000C12343F0004343EA505323FA02F0704754
:100CB0004FF00000704750EA013002D14FF0FF3092
:100CC00070474FF0000070474FEA4102B2F1E04335
:100CD00024BFB3F5001CDCF1FE5C0DD901F0004C23
:100CE0004FEAC0024CEA5070B2F1004F40EB830073
:100CF00008BF20F00100704711F0804F21D113F19F
:100D00003872BCBF01F00040704741F480114FEAD7
:100D10005252C2F11802C2F1200C10FA0CF320FA60
:100D200002F018BF40F001004FEAC1234FEAD3237D
:100D300003FA0CFC40EA0C0023FA02F34FEA4303E7
:100D4000CCE77FEA625307D150EA01331EBF4FF070
:100D5000FE4040F44000704701F0004040F0FE408B
:100D600040F40000704700BF53B94AB9002908BFDA
:100D700000281CBF4FF0FF314FF0FF3000F074B976
:100D8000ADF1080C6DE904CE00F006F8DDF804E0E2
:100D9000DDE9022304B070472DE9F047089D0446C1
:100DA0008E46002B4DD18A42944669D9B2FA82F21E
:100DB00052B101FA02F3C2F1200120FA01F10CFA5A
:100DC00002FC41EA030E94404FEA1C48210CBEFB92
:100DD000F8F61FFA8CF708FB16E341EA034306FB1B
:100DE00007F199420AD91CEB030306F1FF3080F0AA
:100DF0001F81994240F21C81023E63445B1AA4B2F7
:100E0000B3FBF8F008FB103344EA034400FB07F798
:100E1000A7420AD91CEB040400F1FF3380F00A81D9
:100E2000A74240F207816444023840EA0640E41BCE
:100E300000261DB1D4400023C5E900433146BDE87A
:100E4000F0878B4209D9002D00F0EF800026C5E91C
:100E5000000130463146BDE8F087B3FA83F6002E34
:100E60004AD18B4202D3824200F2F980841A61EBAC
:100E7000030301209E46002DE0D0C5E9004EDDE7CA
:100E800002B9FFDEB2FA82F2002A40F09280A1EBB2
:100E90000C014FEA1C471FFA8CFE0126200CB1FB07
:100EA000F7F307FB131140EA01410EFB03F0884200
:100EB00008D91CEB010103F1FF3802D2884200F28D
:100EC000CB804346091AA4B2B1FBF7F007FB10111F
:100ED00044EA01440EFB00FEA64508D91CEB0404BD
:100EE00000F1FF3102D2A64500F2BB800846A4EB18
:100EF0000E0440EA03409CE7C6F12007B34022FA03
:100F000007FC4CEA030C20FA07F401FA06F31C4331
:100F1000F9404FEA1C4900FA06F3B1FBF9F8200C3E
:100F20001FFA8CFE09FB181140EA014108FB0EF084
:100F3000884202FA06F20BD91CEB010108F1FF3AD4
:100F400080F08880884240F28580A8F102086144E0
:100F5000091AA4B2B1FBF9F009FB101144EA0141EE
:100F600000FB0EFE8E4508D91CEB010100F1FF3499
:100F70006CD28E456AD90238614440EA0840A0FB31
:100F80000294A1EB0E01A142C846A64656D353D007
:100F90005DB1B3EB080261EB0E0101FA07F722FA2B
:100FA00006F3F1401F43C5E9007100263146BDE854
:100FB000F087C2F12003D8400CFA02FC21FA03F3B7
:100FC000914001434FEA1C471FFA8CFEB3FBF7F038
:100FD00007FB10360B0C43EA064300FB0EF69E425D
:100FE00004FA02F408D91CEB030300F1FF382FD2F6
:100FF0009E422DD9023863449B1B89B2B3FBF7F69E
:1010000007FB163341EA034106FB0EF38B4208D976
:101010001CEB010106F1FF3816D28B4214D9023EB7
:101020006144C91A46EA004638E72E46284605E7D5
:101030000646E3E61846F8E64B45A9D2B9EB0208A6
:1010400064EB0C0E0138A3E74646EAE7204694E736
:101050004046D1E7D0467BE7023B614432E7304669
:1010600009E76444023842E7704700BFDFF834D034
:10107000002103E00C4B5B58435004310B480C4BF0
:1010800042189A42F6D30B4A02E0002342F8043B8E
:10109000094B9A42F9D30AF0AFFC2BF0D3F800F0D9
:1010A000D1FE70470000032068FD0D0800000020FD
:1010B000E8020020E802002084E40120FEE700F0BE
:1010C00007BC00F077BC704710B5042104462AF035
:1010D0002CF8204610BD000038B50C4B0C4C188085
:1010E0000C4B822019806368984740F611039842A0
:1010F0000AD1094D23682C60822098472B688220F2
:10110000DB689847002038BD0120FCE7040300207D
:101110006400002006030020080300204FF4A071A3
:10112000F020FFF7D9BF0000F7B52D4D2B6804461E
:101130001B698220984780B22080002843D02B680A
:101140000DF106025B6901A982209847BDF80620CF
:10115000A2F5B47292B20A2A37D90B23B2FBF3F28A
:10116000204B1B889A4201D9013B9AB2BDF804304A
:1011700040F6B8318B422AD8C3F571630E339BB267
:101180000F21B3FBF1F3184909888B4201D94B1E9B
:101190009BB2164E164D30682F68834281B28CBFC9
:1011A000591AC91AB8B2BA428CBF101A801A89B239
:1011B00080B201440529C8BF33603368C8BF2A60C4
:1011C00063802B68A38003B0F0BD0022CEE7C3F597
:1011D0006D6308339BB20E2BD2D80023D9E700BF32
:1011E0000803002006030020040300200C03002055
:1011F0001003002037B568460D461446FFF794FFEC
:10120000BDF8000030B1BDF802302B60BDF80430ED
:101210002360012003B030BD704770477047012341
:1012200080F8741080F87530704700207047000017
:10123000034B4164003918BF01211970704700BF8A
:10124000BFE1012000207047836B0BB108461847AF
:1012500070474FF6FF707047406803689B691847F6
:1012600070477047704700F045BC08B503680446F6
:10127000D3F880309847236820469B6F984700F04A
:10128000EBF8236820461B6F9847292001F0F2F9FC
:1012900000F0E2F8236820461B6F9847F8E710B586
:1012A000044611F0A3FE23682046D3F8AC30BDE815
:1012B0001040184700F010BC00F014BC00F040BC17
:1012C00000F0E6BB00F040BC00F048BC00F0EABB18
:1012D00011F018B810B57C21044629F026FF2046ED
:1012E00010BD90F877301BB1406803681B68184741
:1012F0001846704710B590F8341090F874400C4BB5
:101300008C421A7809D03AB90A4A0B4914880888DD
:1013100010800C8001221A7010BD002AFCD0054AF2
:1013200005491488088810800C800022F3E700BF6C
:10133000B8E10120B4E10120B6E1012070B50D460D
:10134000194635B9094B0A4A0A4840F2BB212AF02E
:1013500039FEC0E90F52084B003A18BF01221A703B
:101360000368BDE87040D3F88C3018475CED020884
:1013700094ED0208E2ED0208BEE1012008B5094B38
:101380001B888B4203D8084B1B88934205D9074B17
:10139000074A08489E212AF015FE074B1980074B83
:1013A0001A8008BDB4E10120B6E1012027EE020851
:1013B0008AEE0208E2ED0208BAE10120BCE1012058
:1013C000012108B5002208460DF06EFE0A4B186098
:1013D00028B90A4B0A4A29210A482AF0F3FD0022BB
:1013E000042101200DF026FF074B186018B9074BA8
:1013F000034A2D21F0E708BD18030020A8EF0208DA
:10140000F1EF020820F002081403002079F002082E
:10141000024B4FF0FF3118680DF09CBE18030020FE
:10142000014B18680DF0D0BE18030020024B0021BC
:1014300018680DF08FBE00BF18030020FFF7F0BF43
:1014400003480449006800231A460DF039BF00BF65
:10145000140300200400002013B5084C00231A4692
:1014600001A920680DF06EFF20684FF0FF330022C5
:1014700001A90DF067FF02B010BD00BF14030020EA
:1014800003685B6C18470120704703689B6A184724
:1014900082B0002301930D4B1A6B42F400021A63D1
:1014A0001A6B02F400020192019A1A6942F40002D6
:1014B0001A611A6922F400021A61054B054A1A6181
:1014C000054B4FF080629A6002B0704700380240CE
:1014D000988D00201D15000800E100E040F2EF307B
:1014E00070470000054B0360054B4FF08062C3F866
:1014F0008820BFF34F8FBFF36F8F704724F202082D
:1015000000E100E010B504464FF45A61FFF7EAFF2E
:10151000204629F00AFE204610BD0000024B1B6841
:10152000586803685B691847C0E1012070B504463C
:1015300025460A4B0C30002660602672667245F81C
:10154000203B6022294611F0B9FE04F55A63EE6093
:101550002435AB42FBD1204670BD00BF24F2020807
:1015600008B50B290BD8DFE801F01206100A0A0AA9
:101570000A0808080808012008BD0520FCE7054BFB
:10158000054A064867212AF01DFD0020F4E70220E5
:10159000F2E700BFBBF00208D6F0020820F1020813
:1015A00008B50A2909D8DFE801F010060E08080876
:1015B000080606060600012008BD054B054A064838
:1015C00088212AF0FFFC0020F6E70220F4E700BFA4
:1015D000BBF0020877F1020820F102082DE9F84378
:1015E0004F7F0C4639468146FFF7BAFF94F81E80BC
:1015F000054641464846FFF7B3FF41460646484682
:10160000FFF7CEFFA18A628B424B521A1A649A618D
:10161000228B521A1A61E28A586342EA01425A64E2
:1016200020696268D863DA60216894F81CC0802958
:101630004FEA0C6226D010D8202945EA020461D076
:1016400040295FD004295DD0324B2A4342F4003256
:101650004745DA615AD0304A40E0B1F5807F07D083
:10166000B1F5007FF0D142F4003242F0090203E00C
:1016700042F4003242F00A02DA61E2681A625E6203
:1016800058612AE0A4682A4342F40032211DD9623D
:10169000DA6122785E62586142B1012A21D01F4B83
:1016A0001F4A20484FF489712AF08CFCDA6961885E
:1016B00022F47F42013922F0100242EA0122DA616B
:1016C0000120144BDA6942F02002DA61DA699206ED
:1016D000FCD410229A600028BDD0134A1A60BDE8DD
:1016E000F8836288D969541E21F47F4222F01002E7
:1016F00042EA0422BCF1FF0042F0100218BF0120B0
:10170000DA61DEE744F40034DC61B8E740F201223C
:10171000E4E700BF00B0024001020100C2F102088C
:10172000DCF1020820F102080102020070B50C464B
:10173000897FFFF735FFA68AE18A628B154B256901
:10174000586341EA0641921B5964DD631A642668B6
:10175000E168082E0DD19A611A615862207F0E4A05
:1017600042EA0062DA610D4A19625D61DD601A6069
:1017700070BD0022D8611A6148090A0A02F4784251
:1017800000F4FC600243C1F3C4010A439A63044AB3
:10179000EDE700BF00B002400900010001020200B5
:1017A000010203000120704754207047542303FBBB
:1017B000010008307047542303FB010008307047D4
:1017C0000120704741F2B870704741F2B87303FBD3
:1017D00001000830704741F2B87303FB0100083084
:1017E0007047012070471020704700EB011008304F
:1017F000704700EB011008307047084603F028B925
:1018000010B5034B036004460FF060FE204610BD88
:10181000DCF2020810B50446FFF7F2FF20465C2117
:1018200029F083FC204610BD10B5034B036004462D
:101830000FF04CFE204610BDA8F2020810B5044679
:10184000FFF7F2FF20464FF4BE5129F06EFC204610
:1018500010BD000010B5034B036004460FF036FEC8
:10186000204610BD74F2020810B50446FFF7F2FFDF
:101870002046182129F059FC204610BD10B5094B0F
:101880000360044600F5BF500C30FFF7B9FF04F1C8
:101890002C00FFF7C9FF04F11400FFF7DBFF20461F
:1018A00010BD00BF10F3020808B50248FFF7E6FFBD
:1018B00008BD00BF2003002010B50446FFF7DEFF7F
:1018C000204641F6A41129F030FC204610BD00004E
:1018D0002DE9F34101F006FF054601F007FF002462
:1018E000014623462846224600941AF0D3FE264B92
:1018F000264A274D1A60204609F0AAF925481AF011
:1019000015FE2B78BFF35B8FDB0737D4284629F011
:101910000EFC98B3204C214B236004F12C0808F5F1
:10192000BE5708F5C15604F114006060C4F8088081
:10193000E76026610FF0CCFD194B636140460FF064
:10194000C7FD184BE36238460FF0C2FD04F5805323
:10195000154AC3F8EC2703F6480009F037FB224686
:1019600007F15C01304609F091FA304603F070F857
:101970000E482AF045FB284629F0E5FB0C4802B04A
:10198000BDE8F041FFF76FBC3CE20120E42A0020F3
:101990001C030020080000202003002010F3020890
:1019A00074F20208A8F20208DCF20208A918000882
:1019B000682A00200148FFF758BC00BF682A0020B1
:1019C00070B5234C234E244B244D23603046FFF743
:1019D000ADFD28461EF00AF8214B2248DC60224C5F
:1019E00003600022F0204FF480712080C3E91212BE
:1019F0001E4C1F492080C3E919121E4C1A864FF055
:101A000080714FF4A07059670121C3E90422C3E932
:101A10000622C3E90822C3E90A22C3E90E22C3E968
:101A20001022C3E91422C3E916221A6683F86C2037
:101A30001A67C3E9016583F8781020800E4C83F89B
:101A4000341020800D4802700D4A1A6070BD00BF2E
:101A5000C41C0020C81C00204CED0208E82A00200D
:101A6000682A0020C0E10120B4E10120BAE1012090
:101A700001000001B6E10120BCE10120B8E1012034
:101A8000D8EE02080148FFF72DBD00BFC81C00209A
:101A9000034B902283F85A2383F85823704700BFE2
:101AA00000E100E0094A0A49D3680A48C3F30A037F
:101AB000013B9BB20B801169C1F30A01013901801E
:101AC0001364536B43F00103536370470068014094
:101AD000642B0020622B0020014BD3F8AC00704730
:101AE00000680140024B0122C3F8AC105A627047F3
:101AF0000068014070B5044610F059FC23685D6E23
:101B000017F02AFC01462046A8472368054AD3F867
:101B100088502046AC460023BDE87040A2F516313F
:101B2000604700BF005802D010F028BC90F84B303E
:101B300013B1024B01221A7010F02CBC602B002054
:101B400010F0E6BB10F03FBD034B4FF080629A608F
:101B50004FF080729A60704700E100E0084B4FF050
:101B60008062C3F88820BFF34F8FBFF36F8F4FF0B1
:101B70008072C3F88820BFF34F8FBFF36F8F704719
:101B800000E100E010B5144C236823B3134B144A52
:101B90001B6C11888B4213D1124B19880BF026FC59
:101BA000226892F86630013382F86630FFF748FC0D
:101BB000206811F01BFABDE810400020FFF72CBB95
:101BC0000BF014FC206803681B6A9847BDE81040BE
:101BD0000020FFF722BB10BDC0E1012000680140DA
:101BE000642B0020622B002007B5064BADF80600E1
:101BF0001B68054801220DF106010CF008F903B03D
:101C00005DF804FB180000202890002083B5274EC3
:101C1000274DDFF8B480002433681E2B32DC2548C2
:101C20004FF0FF33006800220DF107010DF08AFB31
:101C30009DF80730012B25D1D8F80070F86AFEF71F
:101C4000D1FC22462B46FEF747FDFFF71DF8326810
:101C500078634FF47A7393FBF2F3013307EE903A13
:101C6000154B1648F8EEE77A0132C3ED007AFCEE28
:101C7000E77A32600068C7ED0A7A14230022314601
:101C80000DF01EFB33681F2BC6D1D8F800200023AF
:101C90003360D36A01335363094B18680DF0B2F90E
:101CA000084B18680DF0AEF9B6E700BF1000002031
:101CB0000000E03F682B0020742B0020882B0020C0
:101CC000842B00209C2C0020C090002000000000ED
:101CD00080B52CA7D7E90067DFF8B080224D00243B
:101CE000404609F07DFF0121404609F0EDFF4046E6
:101CF0000AF0CCF880B207EE900AF8EE677AB0EE00
:101D0000087A1A4B67EE877A9FED197A188067EE8A
:101D1000877A184B17EE900AC3ED007AFEF784FC21
:101D200022462B46FEF720FB32463B46FEF7FEFDE1
:101D3000FEF7CAFF9FED107A104B07EE900AF4EE03
:101D4000C77AF1EE10FA186098BF01220C4888BFDC
:101D500000224FF400510AF065FD4FF4FA700DF0C7
:101D600089F9BDE7AFF300800000E03F982C002028
:101D700000008039942C002000000C42902C0020A0
:101D8000001802407B14AE47E17A843F488D002062
:101D900070B5A0B0102200210AA82AF099FA1422E6
:101DA000002103A82AF094FA0021302214A82AF076
:101DB0008FFA0025214B01951A6C42F080521A646B
:101DC0001B6C1F4A03F080530193019B029513681B
:101DD00023F4404343F480431360136803F4404307
:101DE0000293029B4FF4803601230224CDE908368A
:101DF0004FF480030422CDE90E434823CDE910239C
:101E000008A80323139312940BF00EFB0F23CDE9C4
:101E1000033421464FF4805303A8CDE906330595DA
:101E20000BF0DAFC082314933C23189314A8052321
:101E30001A931D960BF0AAFD20B070BD0038024029
:101E4000007000402DE980489DB00024CC4DDFF8A3
:101E50006C8309F0DFFDFFF79BFF142200210FA820
:101E60002AF036FA02942B6BC64843F020032B630A
:101E70002B6B03F020030293029B03942B6B43F024
:101E800080032B632B6B03F080030393039B049469
:101E90002B6B43F004032B632B6B03F004030493BD
:101EA000049B05942B6B43F001032B632B6B03F016
:101EB00001030593059B06942B6B43F002032B63F0
:101EC0002B6B03F002030693069B07942B6B43F0E6
:101ED00040032B632B6B03F040030793079B08948D
:101EE0002B6B43F010032B632B6B03F01003089351
:101EF000089B09942B6B43F008032B632B6B03F0B7
:101F00000803099322460421099B0AF08BFC9E4892
:101F100022464FF440510AF085FC22469B484FF47C
:101F20000051012604270AF07DFC022395481293F4
:101F30000FA9CDE90F7611940AF08CFB02234FF420
:101F40004052914812930FA9CDE90F264FF4005942
:101F500011940AF07FFB0FA98C48CDE90F96CDE9CB
:101F600011440AF077FB8A488A4A02600AF0C6F8F0
:101F7000894B8A4AC8F82040C8E9003240464FF4ED
:101F80008042C8E90424C8E90244C8E906440AF0CA
:101F900031FE102140460BF06DF8214640460BF013
:101FA00088F87F487F49DFF8188284624FF4827294
:101FB0004FF4007CC0E900121822C0E906C20A22D0
:101FC000C262C0E90244C0E90444C0E908440BF01D
:101FD000E1FE754AC8F828904FF0100AC8E90026BB
:101FE0004022C8E904A24FF400634FF4C0724FF0DE
:101FF000030BC8E90624C8E90834072202230FA905
:1020000040464FF00809CDE90F32CDE913B31593DF
:10201000C8E90247CDE911720BF0E2FD4FF6FF72FD
:102020000BA94046CDE90C960B960A940E940BF042
:10203000F7FD304609F01AFD02234FF6FF720BA997
:102040004046CDE90B39CDE90D640BF0E9FD4FF6C3
:10205000FF720BA94046CDE90BB9CDE90D740BF029
:10206000DFFD4FF40C720A920A9A0E920BA94FF6FA
:10207000FF7240460D96CDE90B790BF0D1FD40F291
:102080006A5140460BF0E3FD214634220FA82AF0A6
:102090001FF9DFF83081454AA8F83440C8E9002428
:1020A0000922C8E905261D2240F20D1EC8E9072BAA
:1020B00040F24312C8E909E240F2171B40F247120E
:1020C0004046C8E90BB2C8E90244C8F8104088F895
:1020D00036400BF093F8FF2002234FF0050BF02160
:1020E0004FF4A072CDE914044FF48060CDE91223BF
:1020F000CDE91014CDE9160BCDE918411A920FA9BC
:10210000224640460F94DFF8C080ADF86C408DF851
:102110006E400BF03EF9264AC8F80020126890473E
:10212000D8F80020DFF8A480D26890470223214A23
:10213000C8E90A43C8E90C444046C8E90234C8E982
:1021400000240AF08BF9314640460AF03FFA1C227F
:1021500021460FA8DFF87880CDE90B442AF0B8F8C3
:10216000154BC8F80840C8E9003448F65313C8E9CD
:10217000033440468023C8F818300CF05FFA29E099
:102180000038024000080240000C024000180240E3
:10219000908D002000300240005C0040A0860100CD
:1021A0002890002000500140400100A0006801403C
:1021B0002C00002000B0024000040040F88E0020F7
:1021C000F48F00204C8F00207C2B0020988D002065
:1021D0000091002020230BA94046CDE90B340CF0E0
:1021E000F1FB302322460FA94046CDE90F3411946C
:1021F00013940CF08DFA404601F054F852462146F3
:102200000FA82AF065F8B74AB74B1676C2E9003432
:102210004FF040514FF000631046C2E90A31D661D9
:1022200056619460146182F82040D46082F8304096
:1022300009F030FCAB4A11940FA91046CDE90F7696
:1022400009F06EFE01942A6B42F480022A632A6B25
:10225000A64D02F4800201925946019A3820224686
:1022600009F00CFF382009F03BFF224659463A207E
:1022700009F004FF3A2009F033FF22465946462070
:1022800009F0FCFE462009F02BFF524621460FA81C
:102290002AF01EF84FF00063954AEE614FF040506F
:1022A000C5E90A302846C5E9002485F830606E612A
:1022B000AC602C612C7685F82040EC6009F0EAFBDC
:1022C0000B220FA92846CDE90F268A4D119409F05B
:1022D00027FE524621460FA829F0FAFF864AEE61F2
:1022E0004FF0405C4FF000632846C5E90A3CC5E961
:1022F000002485F830606E61AC602C612C7685F826
:102300002040EC6009F0C6FB0D230FA92846CDE95B
:102310000F367A4D119409F003FE524621460FA85C
:1023200029F0D6FF764BAC612846C5E90034C5E9F3
:102330000244C5E90444CDE90B440CF065F94FF4BF
:1023400080530FA928460F930CF078FA0BA9284662
:10235000CDE90B446B4D0CF035FB1C2221460FA838
:10236000CDE90B4429F0B4FF674B2C614FF47A7A26
:102370002846C5E9003AC5E90244AC610CF078F999
:102380000BA928466026CDE90B440CF01BFB3A460E
:102390000FA92846CDE90F64119413940CF0E4F9C9
:1023A000284600F07FFFDFF8D4E15848584D04611B
:1023B0004FF41653C0E900E30C23C0E90534C0E92B
:1023C0000244C4610CF0BAFB1C2221460FA8CDE9DF
:1023D0000B4429F07DFF4FF08043C5E9003ADFF858
:1023E000A0A1AC602846C5E903A4AC610CF040F99B
:1023F0000BA92846CDE90B440CF0E4FA22460FA9BC
:102400002846CDE90F6A119413940CF0ADF92846D3
:1024100000F048FFFEF753FE4FF400613D4827F0FF
:102420009FFE40460BF0C2FF214640460CF0A8FA42
:10243000214628460CF0C4FA214628460CF0A0FAA2
:102440002B68C3F82CA0DA6A01325A630CF04AFDFB
:10245000314A394648460CF0EDFE304B304A1860A0
:10246000394648460CF0E6FE2E4B2F4A1860394696
:1024700048460CF0DFFE2D4B2D4A18603946484681
:102480000CF0D8FE2B4B2C4A1860394648460CF00D
:10249000D1FE2A4B2A4A186021462A480CF05CFDDE
:1024A000294B2A4A1860214629480CF055FD294B32
:1024B000294A1860214629480CF04EFD284B294A2C
:1024C0001860214628480CF047FD284B284A186020
:1024D000214628480CF040FD274B18600CF01CFDED
:1024E000FEE700BF488D002000220140B88C00208C
:1024F00000200140008D002000210140809000203C
:102500000000014040910020000800408091002020
:10251000C0900020A04C002028F40208682B002066
:1025200064F40208702B0020C4F40208882B0020F9
:10253000DCF40208842C0020F4F40208882C00202B
:102540007CF40208C3100008782B0020A0F40208D5
:10255000E9280008842B002030F50208D11C00086F
:102560009C2C002040F402080D1C00086C2B00205D
:102570000CF50208E92B00088C2C0020001001400B
:1025800040190100704770477FB5094B8DF817203F
:102590001B6802930DF117020123009201930A4672
:1025A000014604480AF0CEFB07B05DF804FB00BF0B
:1025B00014000020F88E00207FB500238DF817301E
:1025C000084B1B6802930A4601230DF11701009185
:1025D0000193014604480AF045FC9DF8170007B036
:1025E0005DF804FB14000020F88E00201FB5084C95
:1025F00024680092CDE901340A46012301460548CA
:102600000AF030FC003818BF012004B010BD00BF34
:1026100014000020F88E002009F028BA08B50648FA
:10262000002204210AF0FEF8BDE808400248012219
:1026300004210AF0F7B800BF0008024038B50B4D7E
:10264000044601220A484FF400510AF0EBF8002238
:10265000042128460AF0E6F82046FFF7C5FA284686
:102660000122BDE8384004210AF0DCB8000802402D
:10267000000C024038B50B4D044600220A484FF4C6
:1026800000510AF0CFF80022042128460AF0CAF8C7
:102690002046FFF7A9FA28460122BDE83840042168
:1026A0000AF0C0B800080240000C0240F7B5144E12
:1026B000144F05460C463046002204210AF0B2F8B9
:1026C00000224FF4005138460AF0ACF82846FFF7D4
:1026D0008BFA0D4B0D481B68224601A90BF035FD06
:1026E000384601224FF40051019C0AF09BF8304615
:1026F000012204210AF096F8204603B0F0BD00BF85
:1027000000080240000C0240180000202890002021
:1027100009F0ACB902484FF400510AF088B800BF84
:102720000018024070470000014B01221A607047F8
:10273000802B00202DE9F0432DED028B20EEA18AA5
:1027400083B011EE100AA0EE018AF0EE618AFDF767
:102750006BFF02460B4618EE900ACDE90023FDF709
:1027600063FF804618EE100A8946FDF75DFFDDE93C
:10277000002304460D4610461946FDF7ADFF4246BC
:1027800006460F464B4640464946FDF7A5FF024622
:102790000B4630463946FDF7E9FD02460B4620461A
:1027A0002946FEF7C3F8FEF78FFA00EE100A03B0D1
:1027B000BDEC028BBDE8F0832DE9F0432DED028BDB
:1027C00020EE218A83B011EE100AA0EE818AF0EE8D
:1027D000618AFDF729FF02460B4618EE900ACDE903
:1027E0000023FDF721FF804618EE100A8946FDF709
:1027F0001BFFDDE9002304460D4610461946FDF790
:102800006BFF424606460F464B4640464946FDF79B
:1028100063FF02460B4630463946FDF7A7FD0246E8
:102820000B4620462946FEF781F8FEF74DFA00EEEA
:10283000100A03B0BDEC028BBDE8F08370B52DED3E
:10284000028B224E224D234984B0044600232248A5
:10285000324627F007FD21491F4800232A4627F06A
:1028600001FD1E2C2EDC631EDA0006EBC3010432D0
:1028700005EBC30391ED008A93ED001A154416444D
:10288000D5ED001AD6ED000ACDED031AB0EE480AD8
:102890008DED021ACDED010AFFF74CFF1048DDED7A
:1028A000031A9DED021ADDED010AA50000EB840478
:1028B00084ED000AB0EE480AFFF77EFF094B2B4477
:1028C00083ED000A04B0BDEC028B70BDC091002006
:1028D000C0B10020B84C0020A04C0020B86C0020F3
:1028E000082C00208C2B00202DE9F04F2DED048BBF
:1028F000654885B04FF0FF330068002203A90CF053
:1029000021FD039B3BB9614B18680CF07BFB604BCE
:1029100018680CF077FB039B012B07D15B4B186801
:102920000CF08CFB5A4B18680CF088FB0FF2381B2C
:10293000DBE900AB57495848DFF88891DFF864813C
:10294000564D9FED578A4FF4006209F00DFA554934
:1029500055484FF4006209F007FA4E4B01930024EA
:10296000F0EE088A019B33F8022B019307EE902AC0
:10297000F8EE677A013467EEA87A67EE887A17EE88
:10298000900AFDF751FE3AA3D3E9002306460F460D
:10299000FDF7CCFF454B0022FDF7E6FC02460B4657
:1029A000FDF79AFE47EC196B524606460F465B460A
:1029B00051EC190BFDF7BAFF3D4B0022FDF7D4FC9B
:1029C00032463B46FDF788FE00223A4BFDF784FE77
:1029D000FEF77AF938F8023B49F8040B07EE903A13
:1029E000F8EE677A67EEA87A67EE887A17EE900AB3
:1029F000FDF71AFE52465B46FDF798FF2C4B00226E
:102A0000FDF7B2FC32463B46FDF766FE294B00223D
:102A1000FDF762FE18A3D3E90023FDF75DFE18A3BE
:102A2000D3E90023FDF782FFFEF74EF9B4F5006FFE
:102A300045F8040B96D1204C2368012B7FF47AAF24
:102A40001E4D2868FFF7FAFE2B681D4801332B60E6
:102A50000068C823002221460CF032FC00232360CA
:102A600068E700BFAFF300806666666666660A4088
:102A70001F85EB51B81EF53F448B6CE7FBA9004066
:102A80004E62105839845840702B00206C2B002067
:102A9000842B0020A02C0020B88C0020B86C0020D3
:102AA00000008039A03C0020008D00200000F43F91
:102AB0000000E03F00688040802B00200C000020D8
:102AC000682B0020B84C002030B5421E002308447B
:102AD0000139CC1AA34200DB30BD12F8014F10F8C7
:102AE000015D157001330470F3E770B50D460A24DB
:102AF0004E1BA8B913B92D2301360B70941BB2429B
:102B0000B8BF0024224630213444A81929F0E0FB44
:102B100028462146FFF7D8FF20232B55204670BDBD
:102B200090FBF4F604FB1600303001F8010B304640
:102B3000DEE70000000000002DE9F047FDEEC07A5E
:102B4000B5EEC00A17EE906AF1EE10FA48BF764271
:102B50002DED028B04460F4648BF0023014658BFA7
:102B600001234FF000023046B0EE408A48BFB1EE7C
:102B7000408AFFF7BAFF05466FB32E232354384629
:102B8000FDF740FD9FED160B41EC110B28F0F6FA16
:102B900007EE906AF8EEE77A59EC108B78EE677AD8
:102BA000013517EE900AFDF73FFD42464B46FDF713
:102BB00093FDFEF789F8BDEC028B07EE900AFDEE5F
:102BC000E77A2C443A46214617EE900ABDE8F047D2
:102BD0000123FFF78ABFBDEC028BBDE8F08700BF81
:102BE00000000000000024402DE9F041454BACB04E
:102BF00021AA03F12806144618685968154603C52A
:102C00000833B3422A46F7D119889B78AB703E4B04
:102C1000298016AA03F12807154618685968164630
:102C200003C60833BB423246F7D11B883380374B8B
:102C30000BAA03F1280C174618685968164603C6F4
:102C4000083363453246F7D11B783370304B06AA00
:102C500003F1100C904618685968164603C60833ED
:102C600063453246F7D11B782A48337000224FF073
:102C7000FF330068019269460CF064FB009B012B56
:102C80003CD121462B222448234E0BF085FF2946B8
:102C90002148224D2A220BF07FFF1A24B5EC010AAD
:102CA000032102A8FFF748FF08220DEB020130467E
:102CB0000BF072FF013CF1D11748194D164E292235
:102CC00039460BF069FF1A24B5EC010A032104A868
:102CD000FFF732FF082204A930460BF05DFF013CEC
:102CE000F2D1112241460C480BF056FF0D484FF42B
:102CF0007A730068224601A90CF0E2FA2CB0BDE814
:102D0000F08100BF1CF3020847F3020871F30208C8
:102D10009AF30208842C0020809100201C2C0020B3
:102D2000A02B0020882C00200268034B9A4201D17E
:102D300008F08ABE704700BF0010004070470000D6
:102D400082B00E4B00220092596C41F480415964CC
:102D5000596C01F48041009100990192196C41F085
:102D6000805119641B6C03F080530193019B0F2168
:102D70006FF0010002B009F081B900BF00380240D5
:102D800070B505468CB01422002107A829F0A0FADE
:102D90002B68454A93423CD1444B4548454C00265C
:102DA00001965A6C42F480725A645A6C02F4807232
:102DB0000192019A02961A6B42F004021A631B6B8D
:102DC00003F004030293029B4FF0020E032307A9B2
:102DD000CDE907E309F03EFC374BC4E900364FF478
:102DE00000634FF480614FF40050C4E904134FF4C2
:102DF0008073C4E90603C4E90266C4E90866204694
:102E000009F0A2F908B1FFF799FFAC63A5630CB014
:102E100070BD2A4A934225D1244B254800260396AB
:102E20005A6C42F400725A645A6C02F400720392B3
:102E3000039A04961A6B42F004021A631B6B03F0A8
:102E400004030493049B0824032307A9CDE9074343
:102E500009F000FC1A4CDFF874C04FF00073C4E9AD
:102E600000C3BCE7174A9342D1D1104B164800214A
:102E700005915A6C42F480625A645A6C02F4806282
:102E80000592059A06911A6B42F020021A631B6B99
:102E900003F020030693069B4022032307A9CDE9F4
:102EA000072309F0D7FBB2E70020014000380240B9
:102EB00000080240D88D002010640240002101402B
:102EC000388E00200022014000140240406402407D
:102ED0000268094B9A4282B00BD100230193074B41
:102EE0001A6B42F480521A631B6B03F480530193F4
:102EF000019B02B0704700BF003002400038024022
:102F000007B50F4B02689A4216D10022A3F5F04391
:102F10000192196B41F4000119631B6B03F4000368
:102F2000019305215A20019B09F0A8F85A2003B00B
:102F30005DF804EB09F0D4B803B05DF804FB00BF02
:102F400000B002402DE9F043044689B0142200216C
:102F500003A829F0BDF92268244B9A4243D1244C9E
:102F6000244800250095236B43F004032363236B5F
:102F700003F004030093009B0195236B43F00103CE
:102F80002363236B03F001030193019B4FF01209AC
:102F90004FF400734FF001080327042603A9CDE97D
:102FA0000339CDE90587079609F054FB4FF4807388
:102FB0001148079603A9CDE90339CDE9058709F042
:102FC00049FB0295236C43F400032364236C03F450
:102FD00000030293029B236A43F400032362236AE3
:102FE00023F40003236209B0BDE8F083005C0040D5
:102FF000003802400008024000000240F0B50446DC
:103000008DB01422002107A829F062F92268574BDD
:103010009A4240F0A88003F55043002500955A6C71
:10302000534842F080625A645A6C02F08062009207
:10303000009A01951A6B42F020021A631A6B02F093
:1030400020020192019A02951A6B42F001021A6362
:103050001A6B02F001020292029A03951A6B42F077
:1030600002021A631A6B02F002020392039A049599
:103070001A6B42F040021A631A6B02F0400204928B
:10308000049A05951A6B42F004021A631A6B02F057
:1030900004020592059A06951A6B42F008021A631B
:1030A0001B6B03F00803069302240E26069B0A946A
:1030B0004FF4806307A9CDE907340B9609F0CAFAEB
:1030C00041F658032B480B9607A9CDE90734092789
:1030D000CDE9095409F0BEFA032327480B9707A945
:1030E000CDE90734CDE9095409F0B4FA4FF470631F
:1030F00021480B9607A9CDE90734CDE9095409F019
:10310000A9FA4FF40C631D480B9607A9CDE90734C3
:10311000CDE9095409F09EFAC02319480B9607A976
:10312000CDE90734CDE9095409F094FA082315488C
:103130000B9607A9CDE90734CDE9095409F08AFABD
:103140004FF4A0530D480B9707A9CDE90734CDE9FB
:10315000095409F07FFA58202A46052108F08EFF0D
:10316000582008F0BDFF0DB0F0BD00BF0068014061
:103170000014024000000240000402400018024017
:1031800000080240000C024010B5044688B014222A
:10319000002103A829F09CF82268144B9A4223D1FD
:1031A00003F56843002101915A6C114842F48012E2
:1031B0005A645A6C02F480120192019A02911A6BBD
:1031C00042F020021A631B6B03F020030293029B60
:1031D0004FF4607202230321CDE903230523CDE9D7
:1031E000061303A909F036FA08B010BD00500140DB
:1031F000001402400268094B9A4282B00BD10023AE
:103200000193074B5A6C42F001025A645B6C03F065
:1032100001030193019B02B0704700BF0000014011
:10322000003802400368B3F1804F82B00DD1002313
:1032300000930E4B1A6C42F001021A641B6C03F0EF
:1032400001030093009B02B07047094A9342FAD1F0
:1032500000230193054B1A6C42F004021A641B6CA4
:1032600003F004030193019BEDE700BF0038024027
:10327000000800400268094B9A4282B00BD100233B
:103280000193074B1A6C42F002021A641B6C03F0A4
:1032900002030193019B02B0704700BF000400408D
:1032A0000038024010B5044688B01422002103A85B
:1032B00029F00EF82368B3F1804F17D10023009353
:1032C0001E4B1F481A6B42F001021A631B6B03F07E
:1032D00001030093009B20220223CDE90323012355
:1032E000079303A909F0B6F908B010BD154A934237
:1032F00013D100230193114B1A6B42F002021A639F
:103300001B6B03F002030193019B10230393022321
:103310000D480493079303A9E4E70C4A9342E3D1D1
:1033200000230293054B1A6B42F002021A631B6BD7
:1033300003F002030293029B8023E7E70038024078
:103340000000024000040040000402400008004069
:103350002DE9F043064689B01422002103A828F085
:10336000B7FF32682B4B9A4251D1002503F59433B5
:1033700001955A6C284842F010025A645A6C02F0C7
:1033800010020192019A02951A6B42F001021A632F
:103390001B6B03F001030293029B4FF002094FF4F1
:1033A00000730724CDE903394FF00308012303A973
:1033B000CDE9053807944FF4806709F04BF91648BA
:1033C000079403A9154CCDE90379CDE9055809F017
:1033D00041F9134A4FF00063C4E90023204640231B
:1033E000C4E90235C4E90475C4E90655C4E90855C1
:1033F00008F0AAFE08B1FFF7A1FC346325200022E3
:103400000521A66308F03AFE252008F069FE09B000
:10341000BDE8F0830010014000000240988E0020BB
:10342000B86402402DE9F04186B0002303932B4B92
:103430001C68002C4FD14FF00108C3F80080284BC6
:1034400000949A6B274842EA08029A639B6B03EA4E
:1034500008030093022703260C25009B01A94FF6C1
:103460003F03CDE90137CDE9046509F0F3F81E48C3
:10347000059501A9CDE90187CDE9034609F0EAF8F0
:1034800048F233131948059501A9CDE90137CDE973
:10349000034609F0DFF84FF683731548059501A937
:1034A000CDE90137CDE9034609F0D4F84CF20373B6
:1034B0001048059501A9CDE90137CDE9034609F08A
:1034C000C9F860230C48059501A9CDE90137CDE97C
:1034D000034609F0BFF806B0BDE8F081C0D1002076
:1034E0000038024000140240000802400018024068
:1034F00000100240000C02400004024030B50146BA
:1035000089B00022362008F0B9FD362008F0E8FD29
:103510000025154B02951A6C144C42F010021A64E7
:103520001B6C03F01003029301A903A8029B0AF08D
:103530000FFA0AF0EDF90E4B236040F2E733E36037
:1035400040000C4BB0FBF3F0013860602046256171
:10355000A5600BF059F820B920460AF039FF09B0F0
:1035600030BD0120FBE700BF00380240C4D100207D
:103570000010004040420F007047FEE7FEE7FEE704
:10358000FEE7704701480BF061BB00BF809100204F
:1035900001480AF031BF00BFC4D10020014808F043
:1035A0009FBE00BFD88D0020014808F099BE00BF23
:1035B000388E0020014808F093BE00BF988E00208E
:1035C000014809F089BE00BF4C8F0020014808F077
:1035D00073BF00BF988D00200120704708B528F008
:1035E00023FD162303604FF0FF3008BD08B528F017
:1035F0001BFD16230360FEE770B50D4614460E460C
:10360000731B9C4201DC204670BDAFF3008006F8BE
:10361000010BF5E770B50D4614460E46731B9C4230
:1036200001DC204670BD16F8010BAFF30080F5E712
:103630004FF0FF3070474FF400534B60002070474D
:1036400001207047002070470A4A116808B50346F8
:1036500009B9094911601068694603448B4206D9CB
:1036600028F0E2FC0C2303604FF0FF3008BD13602C
:10367000FCE700BF04D2002088E40120704708B5B1
:10368000082926D8DFE801F005091D0D1115191DBF
:10369000210007F029FB006808BD07F025FB406802
:1036A000FAE707F021FBC068F6E707F01DFB0069A9
:1036B000F2E707F019FB4069EEE707F015FB8069B8
:1036C000EAE707F011FB8068E6E707F00DFBC06949
:1036D000E2E70020E0E710B50421044627F025FDCD
:1036E000204610BD0048704768F502081220704758
:1036F00013B5002451B1036801948DF8034001AA69
:103700009C680DF10303A04702B010BD0846FBE71B
:1037100040897047808970478088704783798088A6
:10372000184480B27047C07900F07F007047C079BC
:10373000C00970470020704781807047C180704782
:1037400001817047418170477047704770477047EB
:10375000704710B4C4880368121B84885B6D091B12
:1037600012B25DF8044B09B218474FF6FF7383811C
:103770004FF0FF3303621368C361106070477047F6
:10378000704770477047704790F825201AB190F83D
:10379000242002B11860704770477047704730B4FA
:1037A000C26844685510034604EB6200D20748BF64
:1037B00062599B6830BC48BFD358184743682BB147
:1037C00083682BB9C06800F0010070471846704745
:1037D0000120704710B51021044627F0A6FC2046B2
:1037E00010BD10B54FF4C071044627F09EFC204672
:1037F00010BD90F8252012B103685B691847704727
:1038000008B500F19803994205D115F0A5FDBDE872
:10381000084001F0EDB900F1E003994205D115F03F
:103820009BFDBDE8084001F0D3B900F594708142DA
:1038300005D115F091FDBDE8084001F0E9B908BDDA
:1038400070B5036804461B6B1546984723682946E4
:1038500020465B6BBDE87040184700001B4B73B5FA
:103860001B88018F8B4206462BD9194B1B682BB93D
:10387000184B194A1948AE2128F0A4FB13F811205F
:10388000174B1B6853F82250164B186807F01CFAA8
:103890002B68019001469B6A284698472B6801993E
:1038A0001B6C0446284698472B6801995B6A14FBF9
:1038B00000F428469847E4B2044486F8454002B034
:1038C00070BD002380F84530F9E700BF34E20120E5
:1038D00030E20120D0F6020812F7020840F7020891
:1038E00038E201203CE201202DE9F04F044685B08A
:1038F000254617F0A1F80026664BE66345F8403BE5
:10390000654B2666C4E910364FF48072FF2304F13C
:103910006C0AA4F8642084F86630A4F890204FF66E
:10392000FF735E4AE266A4F8923084F8943003A9EB
:1039300004F19809C4E91266C4E91466C4E916667C
:10394000C4E91C66C4E91E66C4E92066C4E92266AF
:10395000A6665046ADF80C3004F1E00813F041FEC5
:10396000484613F087FF04F59477404613F082FF32
:10397000384613F07FFF4A4BC4E95C34494B32466A
:10398000C4E95E3631462846FFF75AFF28464FF411
:10399000A071FFF7D5FE2846F021FFF7D3FE4FF0C8
:1039A0007F43A366324631465046FFF749FF03A9DD
:1039B0005046ADF80C6013F014FE484669223321DE
:1039C000FFF73EFF4FF0060B052302A903AA484666
:1039D000ADF80830ADF80CB013F0DAFA1022A4F804
:1039E000D0204846FFF73AFF4FF0FF3604F5B87392
:1039F000C4F8C0304046C4E935662422332101931F
:103A0000FFF71EFF052302A903AA4046ADF80830C0
:103A1000ADF80CB013F0BCFA0F22A4F81821404600
:103A2000FFF71CFF019BC4F808313846C4E947661C
:103A3000AC223321FFF704FF03AA02A9052338466D
:103A4000ADF80830ADF80CB013F0A2FA0E23A4F8CC
:103A500060313846FFF702FF019BC4F85031201D4A
:103A60002946C4E9596601900EF0F8F901985146CB
:103A70000EF0F4F9019849460EF0F0F9019841462C
:103A80000EF0ECF9019839460EF0E8F9204605B041
:103A9000BDE8F08FA8F7020824480308044A030889
:103AA00090F7020801380008704770477047704768
:103AB00030B4C26844685510034604EB6200D20774
:103AC00048BF62599B6830BC48BFD3581847436809
:103AD0002BB183682BB9C06800F00100704718460D
:103AE00070470120704710B50821044627F01DFBE0
:103AF000204610BD10B51021044627F016FB2046C5
:103B000010BD10B54FF4AC71044627F00EFB2046F3
:103B100010BD00F58670884208B505D115F01CFC73
:103B2000BDE8084001F084B808BD00000022C0E9EB
:103B30000122C0E90322C0E90522C0E907224FF4AF
:103B400080728284014A0260704700BFDCF702087D
:103B500038B5262204460D46002128F0B9FB204640
:103B6000FFF7E4FF064B23602B88E384FF23204606
:103B700084F82830294613F034FD204638BD00BFB4
:103B8000044A03082DE9F04F04468FB0264600256D
:103B900016F052FF674BE56346F8403B2622294664
:103BA000304628F095FB3046FFF7C0FF624B236498
:103BB0000DF13008FF2304F16C0B84F8663004F13A
:103BC000980A4FF6FF79A5664146584604F1C407A6
:103BD000ADF83090FFF7BCFF41465046ADF830904D
:103BE000FFF7B6FF29462622384628F071FB3846F3
:103BF000FFF79CFF514BC4F8C4304FF47F02504B89
:103C0000A4F8F090C4F8F82004F586794FF0FF325C
:103C1000C4F8EC30C4E94125C4F8F450A4F8FC50D1
:103C2000C4F80051484613F0B5FC464AC4E9522492
:103C3000454A2946C4E9542530462A46FFF700FE86
:103C400030464FF4A071FFF77BFD3046F021FFF7BF
:103C500079FD4FF07F42A26629462A465846FFF773
:103C6000EFFD41465846ADF8305013F0BAFC5046CF
:103C70004C224521FFF7E4FD072241465046ADF8AE
:103C8000302013F0AEFC38465B227C21FFF7D8FDD4
:103C90002E4AA4F8F85004ADC4F8F420394628465A
:103CA00012F0D6FD95E8070004F5807C244B0C93B8
:103CB0008CE807000C2341463846ADF8343013F049
:103CC0000DF94846B4228221FFF7BAFD0323ADF86F
:103CD00024300423ADF8283008230AAAADF82C308C
:103CE000ADF8303009A90BAB4846CDF8008013F091
:103CF000AEFB174BC4F8443104F5A473C4F8343157
:103D0000201D314603900EF0A9F8039859460EF095
:103D1000A5F8039851460EF0A1F8039839460EF025
:103D20009DF8039849460EF099F820460FB0BDE87B
:103D3000F08F00BF6CF802082448030864470308AA
:103D400044F8020854F80208133B00080000FFFF83
:103D50000F001600704770477047704730B4C26854
:103D600044685510034604EB6200D20748BF62590D
:103D70009B6830BC48BFD358184743682BB1836851
:103D80002BB9C06800F00100704718467047012049
:103D9000704710B51021044627F0C7F9204610BD22
:103DA00010B54FF4C071044627F0BFF9204610BD8E
:103DB00000F19802914210B505D115F0CDFABDE899
:103DC000104000F0F5BE00F1E002914205D115F07F
:103DD000C3FABDE8104000F05BBE00F5947291425A
:103DE00004D10368BDE81040DB6A184710BD00002D
:103DF0002DE9F04F044685B0254616F01DFE00263D
:103E0000664BE66345F8403B654B2666C4E91036D1
:103E10004FF48072FF2304F16C0AA4F8642084F844
:103E20006630A4F890204FF6FF735E4AE266A4F86D
:103E3000923084F8943003A904F19809C4E9126619
:103E4000C4E91466C4E91666C4E91C66C4E91E66C2
:103E5000C4E92066C4E92266A6665046ADF80C3077
:103E600004F1E00813F0BDFB484613F003FD04F530
:103E70009477404613F0FEFC384613F0FBFC4A4BA7
:103E8000C4E95C34494B3246C4E95E3631462846C3
:103E9000FFF7D6FC28464FF4A071FFF751FC2846E7
:103EA000F021FFF74FFC4FF07F43A36632463146C7
:103EB0005046FFF7C5FC03A95046ADF80C6013F05F
:103EC00090FB48462A222D21FFF7BAFC4FF0060B43
:103ED000052302A903AA4846ADF80830ADF80CB096
:103EE00013F056F80B22A4F8D0204846FFF7B6FC92
:103EF0004FF0FF3604F5B873C4F8C0304046C4E94B
:103F0000356666222D210193FFF79AFC052302A94D
:103F100003AA4046ADF80830ADF80CB013F038F8FD
:103F20000A22A4F818214046FFF798FC019BC4F828
:103F300008313846C4E94766A2222D21FFF780FCEC
:103F400003AA02A905233846ADF80830ADF80CB035
:103F500013F01EF80923A4F860313846FFF77EFC01
:103F6000019BC4F85031201D2946C4E959660190CF
:103F70000DF074FF019851460DF070FF019849460D
:103F80000DF06CFF019841460DF068FF019839462D
:103F90000DF064FF204605B0BDE8F08FB8F80208C8
:103FA00024480308044A0308A0F80208B13D0008A9
:103FB0007047704700F596730868496803C37047F7
:103FC000704770474160704770470000064BC0F86B
:103FD00048310023C0F84C3100F5A073C0F844010B
:103FE000C0F83C31704700BF6948000801230372E4
:103FF0007047704770477047704770477047704709
:10400000034610B49A6B8A42084608D00A68546D79
:10401000B3F95020002123465DF8044B18475DF8A2
:10402000044B7047034610B49A6B8A42084608D086
:104030000A68546DB3F95020002123465DF8044B03
:1040400018475DF8044B7047034610B49A6B8A42D8
:10405000084608D00A68B3F95010546D0022234670
:104060005DF8044B18475DF8044B7047034610B4E5
:104070009A6B8A42084608D00A68B3F95010546D0A
:10408000002223465DF8044B18475DF8044B704747
:10409000704770477047704770477047704700001F
:1040A000044B1A880B68524208465B6D12B200211D
:1040B000184700BFB6E1012030B4C268446855100B
:1040C000034604EB6200D20748BF62599B6830BCCC
:1040D00048BFD358184743682BB183682BB9C068D1
:1040E00000F001007047184670470120704700003B
:1040F0000B68034A5B6DB2F900200846002118479F
:10410000B6E1012030B4C26844685510034604EBA0
:104110006200D20748BF62599B6830BC48BFD35881
:10412000184743682BB183682BB9C06800F00100C1
:10413000704718467047012070470000044B08463E
:104140001988036849425B6D002209B2184700BF15
:10415000B4E1012030B4C26844685510034604EB52
:104160006200D20748BF62599B6830BC48BFD35831
:10417000184743682BB183682BB9C06800F0010071
:104180007047184670470120704700000B680846CA
:1041900002495B6DB1F9001000221847B4E101201B
:1041A00030B4C26844685510034604EB6200D2077D
:1041B00048BF62599B6830BC48BFD3581847436812
:1041C0002BB183682BB9C06800F001007047184616
:1041D00070470120704710B4C2684168541003460C
:1041E00001EB6200D20748BF0A599B685DF8044B97
:1041F00048BFD358184743682BB183682BB9C068B0
:1042000000F001007047184670470120704710B554
:104210001421044626F089FF204610BD10B50C215C
:10422000044626F082FF204610BD10B5102104463A
:1042300026F07BFF204610BD10B54FF4AC7104464C
:1042400026F073FF204610BD10B55421044626F019
:104250006CFF204610BD10B51021044626F065FF06
:10426000204610BD10B55421044626F05EFF2046BE
:1042700010BD10B51021044626F057FF204610BD92
:1042800010B55421044626F050FF204610BD10B54D
:104290001021044626F049FF204610BD10B55421D8
:1042A000044626F042FF204610BD10B510210446FA
:1042B00026F03BFF204610BD70B50446B2B01E4943
:1042C000C02202A827F0F6FF237C6BBB1B4B1B7898
:1042D00033BB0325013D2CD0237C2F2B29D832AAB8
:1042E00002EB8303E68953F8C03C608993FBF6F246
:1042F00006FB123313FB00F3ADF804006068A189DC
:10430000ADF800300368ADF8061012FB01F21B692E
:10431000ADF8022069469847237C01332374D9E71E
:1043200015F01AF815F072F8237C2F2BD1D9012340
:10433000237232B070BD00BF38EC0208BEE101202C
:1043400008B515F009F8BDE8084015F03DBC0000BF
:10435000054B1B7801462BB1406818B103680C313E
:104360005B6E1847704700BFBFE10120054B1B780B
:1043700001462BB1406818B103680C315B6E1847D9
:10438000704700BFBFE10120054B1B7801462BB1F0
:10439000406818B103680C315B6E1847704700BF66
:1043A000BFE10120054B1B7801462BB1406818B1D5
:1043B00003680C315B6E1847704700BFBFE10120F6
:1043C0001F4B1B7810B5044613B90123037210BDAF
:1043D00090F84D0094F84C300130C0B2984284F807
:1043E0004D0024D8B4F94E20002116F0D7FC10F06F
:1043F000010283B221D04FF6FF710028D8BF0A46D0
:104400001344A4F85030B4F85010238AC91A09B2E2
:10441000A4F8501004F10C00002216F01BF860689C
:10442000036804F13C01DB6FBDE81040184701232D
:104430002372002384F84D30C9E7A4F85000E2E766
:10444000BFE101201F4B1B7810B5044613B90123AF
:10445000037210BD90F84D0094F84C300130C0B29A
:10446000984284F84D0024D8B4F94E20002116F06B
:1044700095FC10F0010283B221D04FF6FF710028A5
:10448000D8BF0A461344A4F85030B4F85010238A19
:10449000C91A09B2A4F8501004F10C00002215F05A
:1044A000D9FF6068036804F13C01DB6FBDE8104090
:1044B000184701232372002384F84D30C9E7A4F87C
:1044C0005000E2E7BFE101201F4B1B7810B5044606
:1044D00013B90123037210BD90F84D0094F84C30CD
:1044E0000130C0B2984284F84D0024D8B4F94E206F
:1044F000002116F053FC10F0010283B221D04FF6D8
:10450000FF710028D8BF0A461344A4F85030B4F80D
:104510005020638AD21A12B204F10C00A4F8502081
:10452000002115F097FF6068036804F13C01DB6F20
:10453000BDE81040184701232372002384F84D3052
:10454000C9E7A4F85000E2E7BFE101201F4B1B7848
:1045500010B5044613B90123037210BD90F84D0045
:1045600094F84C300130C0B2984284F84D0024D801
:10457000B4F94E20002116F011FC10F0010283B2B4
:1045800021D04FF6FF710028D8BF0A461344A4F883
:104590005030B4F85020638AD21A12B204F10C00E1
:1045A000A4F85020002115F055FF6068036804F15D
:1045B0003C01DB6FBDE81040184701232372002344
:1045C00084F84D30C9E7A4F85000E2E7BFE10120CC
:1045D00010B50446D0F83C0158B10368DB68984731
:1045E00038B1D4F83C0103689B6898470023C4F8AD
:1045F0003C3110BD1FB50C4B1B7804468BB10B4BE7
:104600001C22CDE900300123CDE902234068036874
:104610006946DB6F98476068036804F10C011B6E04
:10462000984704B010BD00BFBFE10120880E030809
:104630001FB50C4B1B7804468BB10B4B1C22CDE9EC
:1046400000300123CDE90223406803686946DB6F2F
:1046500098476068036804F10C011B6E984704B02A
:1046600010BD00BFBFE10120440E03081FB50C4B75
:104670001B7804468BB10B4B1C22CDE90030012383
:10468000CDE90223406803686946DB6F984760689C
:10469000036804F10C011B6E984704B010BD00BF05
:1046A000BFE10120BC0D03081FB50C4B1B7804466D
:1046B0008BB10B4B1C22CDE900300123CDE9022345
:1046C000406803686946DB6F98476068036804F1D7
:1046D0000C011B6E984704B010BD00BFBFE1012064
:1046E000000E03082DE9F047D0E954690546B0688B
:1046F00003681B6A9847B0F5C07F05D2504B514AFA
:10470000A321514827F05EFC706803681B6A984734
:104710000F2803D84D4B4B4AA421F2E7F0680368F9
:104720001B6A9847132803D8494B464AA521E8E756
:10473000DFF8308114F010FE14F05CFED8F80000B1
:1047400010B10368DB689847D8F8000010B103681F
:104750001B6898473F4F386810B103685B699847FA
:10476000D5F8380110B103685B689847386810B114
:1047700003681B689847D5F8380110B103689B6837
:104780009847F068036800215B6A984700234360FC
:1047900003720374304B314A02601A88304B1B8815
:1047A0009A4204463FD90732D2104281053306228D
:1047B000B3FBF2F383810823C381B068036800214F
:1047C0005B6A9847824606F043FB706803680021E5
:1047D0005B6A98475146064606F020FBC8F8004041
:1047E000C5F83861C7F800A03EB3331DC9F80030E2
:1047F000DAF80030C6F808905046DB68CAF83C602A
:104800009847336830461B6898472146504616F053
:10481000BFFA236820461B699847236820465B69D6
:10482000BDE8F047184707330621DB1005328381C6
:10483000B2FBF1F2C1814281BFE73346D6E700BF48
:10484000E8F8020876F9020883FA0208CAFA0208B0
:104850006DFB02081CE20120B4E10120980D030861
:10486000B6E1012020E201202DE9F14FD0E9545AB0
:104870000746A86803681B6A9847B0F5BA7F05D257
:10488000454B464AA321464827F09CFB68680368CD
:104890001B6A98470F2803D8424B404AA421F2E7ED
:1048A000E86803681B6A98470B2803D83E4B3B4ACD
:1048B000A521E8E7DFF8F89014F04EFD14F09AFD1A
:1048C000D9F8000010B10368DB689847D9F80000F8
:1048D00010B103681B689847DFF8D880D8F800004B
:1048E00010B103685B699847D7F8380110B10368C5
:1048F0005B689847D8F8000010B103681B689847B8
:10490000D7F8380110B103689B689847E8680368D6
:1049100000215B6A98474FF0000B244B036004466C
:10492000C0F804B080F808B0A868036859465B6A0C
:104930009847064606F0B6FD6868036859465B6A04
:1049400098473146054606F093FDC9F80040C7F880
:104950003851C8F80060E5B12B1DCAF80030336843
:10496000C5F808A03046DB68F56398472B682846F1
:104970001B6898472146304616F00AFA23682046FD
:104980001B69984723685B69204601B0BDE8F04F7A
:1049900018472B46E1E700BFE8F8020810FC0208C0
:1049A00083FA0208CAFA02086DFB0208740D0308B4
:1049B00020E201201CE201202DE9F0411D460368A0
:1049C000BDF918701B6B044616469847236831469C
:1049D00020465B6B98472368294620469B6B984787
:1049E000236839462046DB6BBDE8F04118470000DC
:1049F000F8B5044617460E4614F03EFD104B002550
:104A0000C4E954760F4E1C60C4E952550E4B306811
:104A100023600E4BC4E95035036829469B68C4E9FE
:104A20004E559847284606F013F9336893F87620D8
:104A30000AB1D86C00B998681CF023FE2046F8BD76
:104A40002CE20120C0E10120280D0308100D03080D
:104A5000064BC0F848310023C0F84C3100F5A07374
:104A6000C0F84401C0F83C31704700BF69480008F5
:104A7000064BC0F848310023C0F84C3100F5A07354
:104A8000C0F84401C0F83C31704700BF41540008F1
:104A9000064BC0F848310023C0F84C3100F5A07334
:104AA000C0F84401C0F83C31704700BFF955000818
:104AB000064BC0F848310023C0F84C3100F5A07314
:104AC000C0F84401C0F83C31704700BF05530008EE
:104AD000064BC0F848310023C0F84C3100F5A073F4
:104AE000C0F84401C0F83C31704700BFC95100080C
:104AF000064BC0F848310023C0F84C3100F5A073D4
:104B0000C0F84401C0F83C31704700BF8D50000828
:104B1000064BC0F848310023C0F84C3100F5A073B3
:104B2000C0F84401C0F83C31704700BF514F000845
:104B3000064BC0F848310023C0F84C3100F5A07393
:104B4000C0F84401C0F83C31704700BF114E000866
:104B5000064BC0F848310023C0F84C3100F5A07373
:104B6000C0F84401C0F83C31704700BF755B0008D5
:104B7000064BC0F848310023C0F84C3100F5A07353
:104B8000C0F84401C0F83C31704700BFCD5900085F
:104B9000064BC0F848310023C0F84C3100F5A07333
:104BA000C0F84401C0F83C31704700BF815800088C
:104BB000064BC0F848310023C0F84C3100F5A07313
:104BC000C0F84401C0F83C31704700BF45570008A9
:104BD000064BC0F848310023C0F84C3100F5A073F3
:104BE000C0F84401C0F83C31704700BF695E00085E
:104BF000064BC0F848310023C0F84C3100F5A073D3
:104C0000C0F84401C0F83C31704700BF295D00087E
:104C1000064BC0F848310023C0F84C3100F5A073B2
:104C2000C0F84401C0F83C31704700BFD54C0008C3
:104C3000064BC0F848310023C0F84C3100F5A07392
:104C4000C0F84401C0F83C31704700BFE546000899
:104C500003685B6A18470000F7B505460026184B45
:104C60004660067245F80C3B044628460F4611F094
:104C700005FD144BA563C4E90F3420220123C4E9C8
:104C80001123114B84F84C701B7884F84D60A4F804
:104C900050608BB10D4FB7F9003000930C4B32468A
:104CA000B3F9003031462846FFF786FE284611F05A
:104CB00061FC3B88A4F84E30204603B0F0BD00BF35
:104CC000A00E0308880E0308BFE10120B6E1012011
:104CD000B4E101202DE9F047D0E9544A0746A06825
:104CE00003681B6A9847B0F5AC7F05D2414B424A36
:104CF000A321424827F066F9606803681B6A984759
:104D00000F2803D83E4B3C4AA421F2E7E068036831
:104D10001B6A9847532803D83A4B374AA521E8E73E
:104D2000DFF8E49014F018FB14F064FBD9F80000ED
:104D300010B10368DB689847D9F8000010B1036828
:104D40001B689847DFF8C480D8F8000010B10368EA
:104D50005B699847D7F8380110B103685B689847DA
:104D6000D8F8000010B103681B689847D7F83801DD
:104D700010B103689B689847E0680021FFF768FF5F
:104D800014210546FFF768FFA068036800215B6AED
:104D90009847064606F02AF86068036800215B6AB7
:104DA00098473146044606F001F8C9F80050C7F8A4
:104DB0003841C8F80060DCB1231DCAF80030336800
:104DC000C4F808A03046DB68F4639847236820469F
:104DD0001B6898472946304615F0DAFF2B682846AD
:104DE0001B6998472B6828465B69BDE8F047184760
:104DF0002346E2E7E8F8020818FD020883FA0208F1
:104E0000CAFA02086DFB020820E201201CE2012020
:104E10002DE9F047D0E9544A0746A06803681B6AA9
:104E2000984741F2E753984205D8424B424AA321A2
:104E3000424827F0C7F8606803681B6A98470F2844
:104E400003D83F4B3C4AA421F2E7E06803681B6AA1
:104E50009847532803D83B4B374AA521E8E7DFF8AA
:104E6000E89014F079FA14F0C5FAD9F8000010B1FE
:104E70000368DB689847D9F8000010B103681B6825
:104E80009847DFF8C880D8F8000010B103685B6964
:104E90009847D7F8380110B103685B689847D8F88D
:104EA000000010B103681B689847D7F8380110B1AB
:104EB00003689B689847E0680021FFF7C9FE14214A
:104EC0000546FFF7C9FEA068036800215B6A9847A2
:104ED000064606F039F96068036800215B6A984766
:104EE0003146044606F0F6F8C9F80050C7F83841D4
:104EF000C8F80060DCB1231DCAF800303368C4F87C
:104F000008A03046DB68F4639847236820461B6896
:104F100098472946304615F03BFF2B6828461B6909
:104F200098472B6828465B69BDE8F0471847234639
:104F3000E2E700BFE8F8020834FE020883FA02083C
:104F4000CAFA02086DFB020820E201201CE20120DF
:104F50002DE9F047D0E9544A0746A06803681B6A68
:104F60009847B0F5947F05D2414B424AA32142486D
:104F700027F028F8606803681B6A98470F2803D851
:104F80003E4B3C4AA421F2E7E06803681B6A98475D
:104F9000532803D83A4B374AA521E8E7DFF8E490D5
:104FA00014F0DAF914F026FAD9F8000010B1036809
:104FB000DB689847D9F8000010B103681B68984770
:104FC000DFF8C480D8F8000010B103685B69984727
:104FD000D7F8380110B103685B689847D8F800002B
:104FE00010B103681B689847D7F8380110B10368FF
:104FF0009B689847E0680021FFF72AFE14210546C8
:10500000FFF72AFEA068036800215B6A98470646FE
:1050100006F016FA6068036800215B6A984731461B
:10502000044606F0EDF9C9F80050C7F83841C8F851
:105030000060DCB1231DCAF800303368C4F808A052
:105040003046DB68F4639847236820461B6898471E
:105050002946304615F09CFE2B6828461B69984768
:105060002B6828465B69BDE8F04718472346E2E70E
:10507000E8F8020854FF020883FA0208CAFA020894
:105080006DFB020820E201201CE201202DE9F0471F
:10509000D0E9544A0746A06803681B6A9847B0F5F0
:1050A000967F05D2414B424AA321424826F08AFF0F
:1050B000606803681B6A98470F2803D83E4B3C4A38
:1050C000A421F2E7E06803681B6A9847532803D8D5
:1050D0003A4B374AA521E8E7DFF8E49014F03CF9B1
:1050E00014F088F9D9F8000010B10368DB6898471C
:1050F000D9F8000010B103681B689847DFF8C48036
:10510000D8F8000010B103685B699847D7F83801F8
:1051100010B103685B689847D8F8000010B10368C5
:105120001B689847D7F8380110B103689B68984707
:10513000E0680021FFF78CFD14210546FFF78CFD88
:10514000A068036800215B6A9847064605F0AAFF3D
:105150006068036800215B6A98473146044605F0A1
:1051600087FFC9F80050C7F83841C8F80060DCB1C3
:10517000231DCAF800303368C4F808A03046DB6845
:10518000F4639847236820461B68984729463046B1
:1051900015F0FEFD2B6828461B6998472B682846AA
:1051A0005B69BDE8F04718472346E2E7E8F80208E4
:1051B0007E00030883FA0208CAFA02086DFB02089F
:1051C00020E201201CE201202DE9F047D0E9544AF9
:1051D0000746A06803681B6A9847B0F5E47F05D2CC
:1051E000414B424AA321424826F0ECFE6068036826
:1051F0001B6A98470F2803D83E4B3C4AA421F2E78C
:10520000E06803681B6A9847532803D83A4B374A2B
:10521000A521E8E7DFF8E49014F09EF814F0EAF82E
:10522000D9F8000010B10368DB689847D9F800008E
:1052300010B103681B689847DFF8C480D8F80000F5
:1052400010B103685B699847D7F8380110B103685B
:105250005B689847D8F8000010B103681B6898474E
:10526000D7F8380110B103689B689847E0680021BF
:10527000FFF7EEFC14210546FFF7EEFCA06803687B
:1052800000215B6A9847064605F096FE6068036851
:1052900000215B6A98473146044605F073FEC9F861
:1052A0000050C7F83841C8F80060DCB1231DCAF8C7
:1052B00000303368C4F808A03046DB68F4639847D0
:1052C000236820461B6898472946304615F060FD44
:1052D0002B6828461B6998472B6828465B69BDE800
:1052E000F04718472346E2E7E8F80208940103086C
:1052F00083FA0208CAFA02086DFB020820E20120C4
:105300001CE201202DE9F047D0E9544A0746A06885
:1053100003681B6A9847B0F5CE7F05D2414B424ADD
:10532000A321424826F04EFE606803681B6A984736
:105330000F2803D83E4B3C4AA421F2E7E0680368FB
:105340001B6A9847532803D83A4B374AA521E8E708
:10535000DFF8E49014F000F814F04CF8D9F80000ED
:1053600010B10368DB689847D9F8000010B10368F2
:105370001B689847DFF8C480D8F8000010B10368B4
:105380005B699847D7F8380110B103685B689847A4
:10539000D8F8000010B103681B689847D7F83801A7
:1053A00010B103689B689847E0680021FFF750FC44
:1053B00014210546FFF750FCA068036800215B6AD2
:1053C0009847064605F0C6FD6068036800215B6AE1
:1053D00098473146044605F0A3FDC9F80050C7F8C8
:1053E0003841C8F80060DCB1231DCAF800303368CA
:1053F000C4F808A03046DB68F46398472368204669
:105400001B6898472946304615F0C2FC2B68284691
:105410001B6998472B6828465B69BDE8F047184729
:105420002346E2E7E8F80208B002030883FA02081C
:10543000CAFA02086DFB020820E201201CE20120EA
:105440002DE9F047D0E9544A0746A06803681B6A73
:105450009847B0F5B07F05D2414B424AA32142485C
:1054600026F0B0FD606803681B6A98470F2803D8D0
:105470003E4B3C4AA421F2E7E06803681B6A984768
:10548000532803D83A4B374AA521E8E7DFF8E490E0
:1054900013F062FF13F0AEFFD9F8000010B10368FB
:1054A000DB689847D9F8000010B103681B6898477B
:1054B000DFF8C480D8F8000010B103685B69984732
:1054C000D7F8380110B103685B689847D8F8000036
:1054D00010B103681B689847D7F8380110B103680A
:1054E0009B689847E0680021FFF7B2FB142105464E
:1054F000FFF7B2FBA068036800215B6A9847064685
:1055000005F0F6FC6068036800215B6A9847314645
:10551000044605F0D3FCC9F80050C7F83841C8F874
:105520000060DCB1231DCAF800303368C4F808A05D
:105530003046DB68F4639847236820461B68984729
:105540002946304615F024FC2B6828461B699847ED
:105550002B6828465B69BDE8F04718472346E2E719
:10556000E8F80208DA03030883FA0208CAFA020814
:105570006DFB020820E201201CE20120F7B5054680
:105580000026184B4660067245F80C3B0446284638
:105590000F4611F073F8144BA563C4E90F342022B1
:1055A0000123C4E91123114B84F84C701B7884F853
:1055B0004D60A4F8506093B10D4FB7F900300093DF
:1055C0000C4B3246B3F9003031462846FFF7F4F968
:1055D000284610F0CFFF3B885B42A4F84E302046AF
:1055E00003B0F0BD5C0E0308440E0308BFE10120C8
:1055F000B6E10120B4E101202DE9F047D0E9544A99
:105600000746A06803681B6A9847B0F5B07F05D2CB
:10561000424B434AA321434826F0D4FC6068036808
:105620001B6A98470F2803D83F4B3D4AA421F2E755
:10563000E06803681B6A9847532803D83B4B384AF5
:10564000A521E8E7DFF8E89013F086FE13F0D2FE1C
:10565000D9F8000010B10368DB689847D9F800005A
:1056600010B103681B689847DFF8C880D8F80000BD
:1056700010B103685B699847D7F8380110B1036827
:105680005B689847D8F8000010B103681B6898471A
:10569000D7F8380110B103689B689847E068036841
:1056A00000215B6A984714210546FFF767FFA06851
:1056B000036800215B6A9847064605F019FC60689C
:1056C000036800215B6A98473146044605F0F6FB03
:1056D000C9F80050C7F83841C8F80060DCB1231D94
:1056E000CAF800303368C4F808A03046DB68F463B9
:1056F0009847236820461B6898472946304615F08E
:1057000047FB2B6828461B6998472B6828465B692E
:10571000BDE8F04718472346E2E700BFE8F8020873
:105720000405030883FA0208CAFA02086DFB02089E
:1057300020E201201CE2012003685B6A184703682D
:105740005B6A18472DE9F047D0E9544A0746A0683C
:1057500003681B6A9847B0F5C07F05D2414B424AA7
:10576000A321424826F02EFC606803681B6A984714
:105770000F2803D83E4B3C4AA421F2E7E0680368B7
:105780001B6A9847532803D83A4B374AA521E8E7C4
:10579000DFF8E49013F0E0FD13F02CFED9F80000E0
:1057A00010B10368DB689847D9F8000010B10368AE
:1057B0001B689847DFF8C480D8F8000010B1036870
:1057C0005B699847D7F8380110B103685B68984760
:1057D000D8F8000010B103681B689847D7F8380163
:1057E00010B103689B689847E068036800215B6A12
:1057F000984714210546FFF7C1FE0021A068FFF776
:105800009BFF064605F0BAFA60680021FFF797FF94
:105810003146044605F098FAC9F80050C7F83841F7
:10582000C8F80060DCB1231DCAF800303368C4F842
:1058300008A03046DB68F4639847236820461B685D
:1058400098472946304615F0A3FA2B6828461B696D
:1058500098472B6828465B69BDE8F0471847234600
:10586000E2E700BFE8F802082E06030883FA020800
:10587000CAFA02086DFB020820E201201CE20120A6
:105880002DE9F14FD0E9545A0746A86803681B6A0E
:105890009847B0F5C07F05D2444B454AA3214548FF
:1058A00026F090FB686803681B6A98470F2803D8A6
:1058B000414B3F4AA421F2E7E86803681B6A984716
:1058C0000B2803D83D4B3A4AA521E8E7DFF8F490CE
:1058D00013F042FD13F08EFDD9F8000010B10368FB
:1058E000DB689847D9F8000010B103681B68984737
:1058F000DFF8D480D8F8000010B103685B699847DE
:10590000D7F8380110B103685B689847D8F80000F1
:1059100010B103681B689847D7F8380110B10368C5
:105920009B689847E868036800215B6A98474FF0D6
:10593000000B234B036059460446C0F804B080F8BE
:1059400008B0A868FFF7F8FE064605F017FA686881
:105950005946FFF7F4FE3146054605F0F5F9C9F85A
:105960000040C7F83851C8F80060E5B12B1DCAF8EF
:1059700000303368C5F808A03046DB68F563984707
:105980002B6828461B6898472146304615F000FAD8
:10599000236820461B69984723685B69204601B04D
:1059A000BDE8F04F18472B46E1E700BFE8F80208D2
:1059B0005607030883FA0208CAFA02086DFB0208B8
:1059C000740D030820E201201CE201202DE9F74FAD
:1059D000D0E9545A0746A86803681B6A9847B0F58F
:1059E000C07F05D2574B584AA321584826F0EAFAFF
:1059F000686803681B6A98470F2803D8544B524ABB
:105A0000A421F2E7E86803681B6A9847532803D883
:105A1000504B4D4AA521E8E7DFF84C9113F09CFC70
:105A200013F0E8FCD9F8000010B10368DB68984770
:105A3000D9F8000010B103681B689847DFF82C8183
:105A4000D8F8000010B103685B699847D7F83801AF
:105A500010B103685B689847D8F8000010B103687C
:105A60001B689847D7F8380110B103689B689847BE
:105A7000E868036800215B6A984706460022364BB7
:105A80004260027246F80C3B0446304610F0F6FDC8
:105A9000324BA6632022C4E90F340123C4E9112349
:105AA0001423A4F84C302E4B1B780022A4F850206D
:105AB0009BB12C4BDFF8B8B0B3F90030009311461E
:105AC000BBF900303046FEF777FF304610F052FD4C
:105AD000BBF800305B42A4F84E300021A868FFF705
