:020000040800F2
:1000000000000320090C010839B900083BB90008B9
:100010003DB900083FB9000841B9000800000000E0
:1000200000000000000000000000000011040108B2
:1000300043B9000800000000A104010805050108FB
:10004000590C0108590C0108590C0108590C0108F8
:10005000590C0108590C0108590C0108590C0108E8
:10006000590C0108590C0108590C0108590C0108D8
:10007000590C0108590C0108590C0108590C0108C8
:10008000590C0108590C0108590C0108590C0108B8
:10009000590C0108590C0108590C0108590C0108A8
:1000A000590C0108590C0108590C0108590C010898
:1000B000590C0108590C0108590C0108590C010888
:1000C000590C0108590C0108590C0108590C010878
:1000D000590C0108590C0108590C0108590C010868
:1000E000590C0108590C0108590C0108590C010858
:1000F000590C0108590C0108590C0108590C010848
:10010000590C0108590C0108590C0108590C010837
:10011000590C0108590C010845B90008590C01088F
:10012000590C0108590C0108590C0108590C010817
:10013000590C0108590C0108590C0108590C010807
:10014000590C0108590C0108590C0108590C0108F7
:10015000590C0108590C0108590C0108590C0108E7
:10016000590C0108590C0108590C0108590C0108D7
:10017000590C0108590C0108590C01080000000035
:10018000590C0108590C0108590C0108590C0108B7
:10019000590C0108590C0108590C0108590C0108A7
:0C01A00051B90008590C01085DB90008B5
:1001B00010B5054C237833B9044B13B10448AFF3A1
:1001C00000800123237010BD6001002000000000AA
:1001D00010A9020808B5034B1BB103490348AFF34C
:1001E000008008BD000000006401002010A9020882
:1001F00053B94AB9002908BF00281CBF4FF0FF318E
:100200004FF0FF3000F072B9ADF1080C6DE904CE8B
:1002100000F006F8DDF804E0DDE9022304B07047E1
:100220002DE9F047089E04468846002B4BD18A42B0
:10023000154667D9B2FA82F24AB1C2F1200701FA33
:1002400002F320FA07F7954047EA030894404FEA83
:10025000154E230CB8FBFEF71FFA85FC0EFB178822
:1002600043EA084307FB0CF1994209D9EB1807F15F
:10027000FF3080F01B81994240F21881023F2B44ED
:100280005B1AA4B2B3FBFEF00EFB103344EA034446
:1002900000FB0CFCA44509D92C1900F1FF3380F0B8
:1002A0000781A44540F2048102382C4440EA07400B
:1002B000A4EB0C0400271EB1D4400023C6E9004380
:1002C0003946BDE8F0878B4209D9002E00F0EB805B
:1002D0000027C6E9000138463946BDE8F087B3FA81
:1002E00083F7002F47D18B4202D3824200F2FA807B
:1002F000841A61EB030301209846002EE0D0C6E982
:100300000048DDE702B9FFDEB2FA82F2002A40F0CF
:100310008F80491B4FEA154E1FFA85F80127B1FB64
:10032000FEFC230C0EFB1C1143EA014308FB0CF1FD
:10033000994207D9EB180CF1FF3002D2994200F232
:10034000CD808446591AA3B2B1FBFEF00EFB101407
:1003500043EA044408FB00F8A04507D92C1900F132
:10036000FF3302D2A04500F2B6801846A4EB080481
:1003700040EA0C409FE7C7F1200CBB4022FA0CFE7C
:100380004EEA030E01FA07F420FA0CF521FA0CF3F9
:100390004FEA1E482543B3FBF8F92C0C08FB193330
:1003A0001FFA8EFA44EA034309FB0AF49C4202FA5C
:1003B00007F200FA07F10BD91EEB030309F1FF3036
:1003C00080F087809C4240F28480A9F10209734446
:1003D0001B1BADB2B3FBF8F008FB103345EA034436
:1003E00000FB0AFAA24508D91EEB040400F1FF3312
:1003F0006BD2A24569D90238744440EA0940A0FB97
:100400000289A4EB0A044C45C2464B4654D351D052
:10041000002E69D0B1EB0A0564EB030404FA0CFC6E
:10042000FD40FC404CEA0505C6E90054002747E7BB
:10043000C2F1200320FA03F7954001FA02F021FAF5
:1004400003F34FEA154E3843010CB3FBFEF71FFAD6
:1004500085F80EFB173341EA034107FB08F38B4293
:1004600004FA02F407D9691807F1FF3C2FD28B4236
:100470002DD9023F2944CB1A81B2B3FBFEF00EFB0B
:10048000103341EA034100FB08F38B4207D9691896
:1004900000F1FF3C17D28B4215D902382944C91A02
:1004A00040EA07473BE73746304609E70746E7E6B5
:1004B0001846FBE64145ABD2B8EB020A69EB0E02E7
:1004C00001381346A4E76046E9E7184695E7674612
:1004D000D1E781467CE702382C4447E7ACF1020CB7
:1004E0002B442FE7384608E73746E9E6704700BF58
:1004F00001F0FF01102A2BDB10F0070F08D010F8D5
:10050000013B013A8B422DD010F0070F42B3F6D1D8
:10051000F0B441EA012141EA014122F007047FF0F1
:1005200000070023F0E80256083C85EA010586EA48
:10053000010685FA47F5A3FA87F586FA47F6A5FA84
:1005400087F68EB9EED1F0BC01F0FF0102F0070290
:1005500032B110F8013B013A83EA010313B1F8D13B
:100560000020704701387047002D06BF354603381C
:10057000073815F0010F07D1013015F4807F02BF55
:10058000013015F4C03F0130F0BC0138704700BFA6
:10059000704704387047704710B51021044629F0A1
:1005A00017FA204610BDA0F10400F5E710B50022AF
:1005B0008260044AC16002F1080420320460426093
:1005C00010BD00BF34AA02087047704770477047DB
:1005D0007047704700F0B4BA10B54FF494710446F8
:1005E00029F0F6F9204610BD10B5044600F010FBC6
:1005F000014B2360204610BD64AA02087047704773
:1006000000F005BC10B54FF4BA71044629F0E0F9CA
:10061000204610BD10B5044600F058FC014B236085
:10062000204610BD9CAA02087047043870477047E6
:1006300010B51021044629F0CBF9204610BDA0F1D9
:100640000400F5E710B500228260044AC16002F19F
:10065000080420320460426010BD00BFC8AA02082E
:10066000704704387047704710B51021044629F0D0
:10067000AFF9204610BDA0F10400F5E710B5002247
:100680008260044AC16002F10804203204604260C2
:1006900010BD00BFF0AA02087047704700F00DBD02
:1006A00010B54FF49671044629F092F9204610BD1A
:1006B00010B5044600F038FD014B2360204610BD04
:1006C00020AB020870477047704700F01CBE10B5A1
:1006D0004FF4E471044629F07BF9204610BD000078
:1006E00010B5044600F094FE014B2360204610BD77
:1006F00054AB0208704704387047704710B510219A
:10070000044629F065F9204610BDA0F10400F5E784
:1007100010B500228260044AC16002F10804203250
:100720000460426010BD00BF84AB02087047704790
:1007300000F089BF10B54FF4CE71044629F048F996
:10074000204610BD10B5044600F0E6FF014B2360C3
:10075000204610BDB4AB020870470438704770479C
:1007600010B51021044629F033F9204610BDA0F140
:100770000400F5E710B500228260044AC16002F16E
:10078000080420320460426010BD00BFE0AB0208E4
:10079000704704387047704710B51021044629F09F
:1007A00017F9204610BDA0F10400F5E710B50022AE
:1007B0008260044AC16002F1080420320460426091
:1007C00010BD00BF08AC020870477047704701F0C9
:1007D000DCB810B54FF4C071044629F0F9F8204692
:1007E00010BD000010B5044601F01EF9014B236056
:1007F000204610BD38AC020870477047704701F0C2
:1008000024BA10B54FF4C071044629F0E1F820462F
:1008100010BD000010B5044601F062FA014B2360E0
:10082000204610BD70AC020870470438704770470E
:1008300010B51021044629F0CBF8204610BDA0F1D8
:100840000400F5E710B500228260044AC16002F19D
:10085000080420320460426010BD00BFA0AC020852
:100860000022026070477047704704387047704735
:1008700010B51021044629F0ABF8204610BDA0F1B8
:100880000400F5E710B500228260044AC16002F15D
:10089000080420320460426010BD00BFC8AC0208EA
:1008A0007047704701F0A2BD10B541F2E8710446EF
:1008B00029F08EF8204610BD10B5044601F0DCFE8C
:1008C000014B2360204610BDF8AC02087047043885
:1008D0007047704710B51021044629F079F820467A
:1008E00010BDA0F10400F5E710B500228260044AB3
:1008F000C16002F1080420320460426010BD00BFF4
:1009000024AD02087047704704F061BA10B54FF487
:10091000AC71044629F05CF8204610BD10B50446C1
:1009200004F0A8FA014B2360204610BD54AD020824
:10093000704704387047704710B51021044629F0FD
:1009400047F8204610BDA0F10400F5E710B50022DD
:100950008260044AC16002F10804203204604260EF
:1009600010BD00BF80AD02087047704704F079BB2E
:1009700010B54FF4B071044629F02AF8204610BD96
:1009800010B5044604F0A6FB014B2360204610BDC1
:10099000B0AD0208704700F596730868496803C354
:1009A0007047704705F04EB810B54FF4AC7104466F
:1009B00029F00EF8204610BD10B50446D0F85401B9
:1009C000FFF751FF2046BDE8104017F0C7BF10B534
:1009D0000446D0F83C0158B10368DB68984738B149
:1009E000D4F83C0103689B6898470023C4F83C3165
:1009F00010BD000010B5044604F0ECFF014B23606D
:100A0000204610BDE4AD02087047704706F03FBDB8
:100A100010B541F23461044628F0DAFF204610BDDB
:100A200010B5044606F06CFD014B2360204610BD56
:100A300030AE0208704704387047704710B5102177
:100A4000044628F0C5FF204610BDA0F10400F5E7DC
:100A500010B500228260044AC16002F1080420320D
:100A60000460426010BD00BF5CAE020870470438ED
:100A70007047704710B51021044628F0A9FF2046A2
:100A800010BDA0F10400F5E710B500228260044A11
:100A9000C16002F1080420320460426010BD00BF52
:100AA00084AE02087047704706F0C1BE10B541F22F
:100AB000E871044628F08CFF204610BD10B50446AE
:100AC00006F0EEFE014B2360204610BDB4AE0208D6
:100AD00090F8252012B103685B6918477047002021
:100AE000704781807047C1807047018170474181A4
:100AF000704770477047704770477047C38810B49D
:100B0000D21A83885DF8044BC91A036812B25B6D70
:100B100009B218474FF6FF7383814FF0FF3303622A
:100B20001368C361106070477047704790F82520C4
:100B30001AB190F8242002B11860704770477047CE
:100B40007047704730B4C56844686A100346ED07C3
:100B500004EB02009B6848BFA25830BC48BFD35882
:100B6000184743682BB183682BB9C06800F00100B7
:100B70007047184670470120704710B50821044699
:100B800028F026FF204610BD10B51021044628F09D
:100B90001FFF204610BD10B54FF49471044628F095
:100BA00017FF204610BD00F198028A4208B508D10F
:100BB0000368DB6A984717F0E9FFBDE8084004F0D6
:100BC000B1BF08BD0A4A026000228280C280028151
:100BD00042818281C28102824282C0E90522C261D1
:100BE0000284428480F82420012280F82520704766
:100BF0002C09030870B5036804461B6B154698471B
:100C00002368294620465B6BBDE87040184700000A
:100C10002DE9F04F04468BB02646002519F026FB3F
:100C2000724BE56346F8403B4FF0260B5A46294687
:100C3000304628F054FF3046FFF7C4FF04F16C093A
:100C40006B4B23644FF0FF084FF6FF775A46294657
:100C500084F86680A5664846ADF8207028F03FFF0E
:100C60004846FFF7AFFF634BE3660AAB04F1980A0F
:100C700033F8082DA4F89220194684F89480484649
:100C8000019316F0C8F85A462946504628F027FF27
:100C90005046FFF797FF012204F1D00884F8BC20EA
:100CA000554AC4F8C050294684F8C450A4F8C67008
:100CB000A4F8C87084F8CA70C4F89820A4F8CC705E
:100CC0005A46404628F00BFF4046FFF77BFF4B4A51
:100CD000C4F8D0204FF47F02C4F80421484ADFF85A
:100CE00028B1C4F81821474AA4F8FC70C4F8005190
:100CF00084F8085184F80951A4F80C51A4F80E5155
:100D0000A4F81071A4F81271C4F81451C4F8202189
:100D1000C4F824512A4629463046C4F8F8B0C4F82D
:100D20001C41FFF767FF30464FF4A071FFF7DDFE6F
:100D30004FF07F473046F021FFF7D9FE2A46A766DD
:100D400029464846FFF756FF019BADF8205019464B
:100D5000484616F060F8504652226021FFF74AFFDD
:100D6000019B1022ADF81C201122ADF82020A4F820
:100D7000CC2007A91A46504615F024FD04F58C72C4
:100D8000C4F8C020404686223A21FFF733FFA4F87A
:100D9000045102ADC4F800714146284615F072F9BD
:100DA00095E80700019BCDF820B004F5867787E829
:100DB0000700251D0F2219464046ADF8242015F0E6
:100DC000A7FC3146284610F06FFC4946284610F033
:100DD0006BFC5146284610F067FC2846414610F04F
:100DE00063FC20460BB0BDE8F08F00BF10AF0208D7
:100DF00000020308E00303085C0003084001030845
:100E0000F8AE0208A70B0008E8AE0208704770476A
:100E1000704730B4C56844686A100346ED0704EBB8
:100E200002009B6848BFA25830BC48BFD35818473F
:100E300043682BB183682BB9C06800F0010070478C
:100E4000184670470120704710B51021044628F05D
:100E5000BFFD204610BD10B54FF4BA71044628F00E
:100E6000B7FD204610BD00F59470884208B505D145
:100E700017F08CFEBDE8084004F0F4BD08BD00008A
:100E800010B526220446002128F029FE2046FFF74F
:100E900099FE0C4B23600C4BA3624FF6FF720023AC
:100EA0004FF47F01A285C4E90C3184F8383084F80E
:100EB0003930A387E387A4F84020A4F84220636474
:100EC000204610BD40010308E8AE02082DE9F04FAE
:100ED00004468FB02646002519F0C8F96E4BE5632D
:100EE00046F8403B4FF026094A462946304628F04E
:100EF000F6FD3046FFF766FE04F16C08FF27674BEE
:100F000023640DF1380B4FF6FF734A46294684F8E7
:100F10006670A5664046ADF8303028F0E0FD4046EA
:100F2000FFF750FE3BF8082D5D4BA4F89220594680
:100F300004F1980AE36684F89470404615F06BFF5C
:100F400004F1E0095046FFF79BFF4846FFF798FF82
:100F500004F594731846029315F036FF514AC4F80D
:100F60006421514AC4F86C21C4F870512A462946BC
:100F70003046C4F86841FFF73DFE30464FF4A0719B
:100F8000FFF7B3FD3046F021FFF7B1FD4FF07F4290
:100F9000A26629462A464046FFF72CFE594640469F
:100FA000ADF8305015F037FF50463B220E21FFF7C9
:100FB00021FE04AF3D4AC4F8C820A4F8CC505146E5
:100FC000384615F05FF897E8070004F1D40C8CE878
:100FD0000700374B0C931622594650460393ADF841
:100FE000342015F095FB48466C224721FFF702FE9E
:100FF000304AC4F81021A4F814514946384615F077
:1010000041F897E8070004F58E7585E80700039B13
:101010000C93152259464846ADF8342015F078FB5C
:101020000298A5228221FFF7E5FD0322ADF82420D6
:101030000422ADF828200922ADF82C20ADF830208C
:101040000BAB0AAA09A90298CDF800B015F019FE59
:101050000F23A4F860311023251DA4F8623104F594
:10106000B273C4F850313146284610F01DFB41469A
:10107000284610F019FB5146284610F015FB49464A
:10108000284610F011FB2846029910F00DFB20466F
:101090000FB0BDE8F08F00BF60AF02080002030888
:1010A000E003030848AF0208670E0008AF8204FFA0
:1010B000E8AE0208785A00FF70477047704730B4B6
:1010C000C56844686A100346ED0704EB02009B689C
:1010D00048BFA25830BC48BFD358184743682BB10B
:1010E00083682BB9C06800F001007047184670474C
:1010F0000120704710B51021044628F069FC2046F5
:1011000010BD10B54FF49671044628F061FC2046DE
:1011100010BDE030884208B505D117F037FDBDE8B5
:10112000084004F0EFBC08BD2DE9F04F04468FB035
:101130002646002519F09AF86B4BE56346F8403BCC
:101140004FF0260B5A462946304628F0C8FC304658
:10115000FFF738FD04F16C08644B2364FF274FF65A
:10116000FF7A5A46294684F86670A56640460DF116
:101170003809ADF830A028F0B2FC4046FFF722FD58
:101180005B4BE36639F8083DA4F8923084F894701C
:10119000494604F19807404615F03DFE5A46294657
:1011A000384628F09CFC3846FFF70CFD514BC4F83C
:1011B0009830DFF84CB1A4F8C4A04FF47F03A4F832
:1011C000D8A0A4F8DAA004F1E00AC4F8C850C4F822
:1011D000CC3084F8D05084F8D150A4F8D450A4F87E
:1011E000D650C4F8DC50C4F8C0B0504615F0ECFD41
:1011F000414BC4F81C31414BC4F824312A46C4F891
:10120000285129463046C4F82041FFF7F3FC304608
:101210004FF4A071FFF769FC3046F021FFF767FC3F
:101220004FF07F43A3662A46294640460393FFF7C3
:10123000E1FC49464046ADF8305015F0ECFD1B226C
:1012400038461C21FFF7D6FC039BA4F8CC5004AD14
:10125000C4F8C8303946284614F014FF95E8070052
:1012600004F1D40383E80700102349463846ADF85B
:101270003430CDF830B015F04BFA5046B42282210C
:10128000FFF7B8FC0323ADF824300423ADF8283071
:1012900008230AAAADF82C30ADF8303009A90BAB01
:1012A0005046CDF8009015F0ECFC0F23A4F818314F
:1012B0001623251DA4F81A3104F58E73C4F80831DD
:1012C0003146284610F0F0F94146284610F0ECF976
:1012D0003946284610F0E8F92846514610F0E4F95E
:1012E00020460FB0BDE8F08FACAF02080002030843
:1012F000E00303084001030894AF0208131100083B
:10130000E8AE020870477047704730B4C56844685B
:101310006A100346ED0704EB02009B6848BFA25821
:1013200030BC48BFD358184743682BB183682BB9EA
:10133000C06800F0010070471846704701207047F0
:1013400010B51021044628F043FB204610BD10B50F
:101350004FF4E471044628F03BFB204610BD00F139
:101360009802914210B505D117F010FCBDE810406D
:1013700004F0B8BB00F1E002914204D10368BDE87B
:101380001040DB6A184710BDF8B51A4B018F1B8857
:101390008B4206462AD9184B1B682BB9174B184AA3
:1013A0001848AE2128F020FB13F81120164B1B68BB
:1013B00053F82250154B186809F050F92B6807466E
:1013C00001469B6A284698472B6804461B6C3946A1
:1013D000284698472B6814FB00F45B6A3946284678
:1013E0009847E4B2204486F84500F8BD002380F811
:1013F0004530FAE70839012004390120F0AF02082E
:10140000ACB0020832B002080C39012010390120BA
:101410002DE9F04F04468DB02646002518F026FF32
:10142000814BE56346F8403B26273A46294630463D
:1014300028F055FB3046FFF7C5FB04F16C084FF070
:10144000FF097A4B23643A464FF6FF73294684F826
:101450006690A56640460CAFADF8283028F03FFBFB
:101460004046FFF7AFFB724BE36637F8083DA4F840
:101470009230394684F89490404615F0CCFC04F143
:1014800098031846019315F00FFE04F1E00304F5EC
:101490009479184604F5B87B029315F005FE48468A
:1014A000FFF7EEFC5846FFF7EBFC624BC4F8B8318F
:1014B000614BC4F8C0312A46C4F8C45129463046AD
:1014C000C4F8BC41FFF796FB30464FF4A071FFF71C
:1014D0000CFB3046F021FFF70AFB4FF07F43A36679
:1014E0002A4629464046FFF785FB39464046ADF877
:1014F000285015F090FC01985A224B21FFF77AFBF7
:1015000001233A4609A9ADF8243001984FF00203AF
:10151000ADF8283015F056F91223A4F8D030019810
:10152000FFF732FF4FF0FF3A04F5DC73C4F8C03028
:10153000C4E935AA0298039396224B21FFF75AFB80
:101540004FF00E02ADF824200F2209A9ADF8282093
:1015500002983A4615F036F91122A4F8182102989B
:10156000FFF712FF039BC4F81CA1C4F820A1C4F824
:1015700008312D2248460E21FFF73CFB0DF1100AE1
:101580002E4BC4F85831A4F85C5149465046039399
:1015900014F078FD9AE8070004F5B27C8CE80700A7
:1015A000274B0A93032239464846ADF82C2015F004
:1015B000AFF83B2258460721FFF71CFB039BC4F8FA
:1015C000A031A4F8A4515946504614F05BFD9AE8A6
:1015D000070004F5D67383E80700194B0A93251D0D
:1015E0004FF0020339465846ADF82C3015F090F80C
:1015F0003146284610F058F84146284610F054F875
:101600000199284610F050F80299284610F04CF83D
:101610004946284610F048F82846594610F044F844
:1016200020460DB0BDE8F08F7CB002080002030830
:10163000E0030308E0AF02085F1300080000FFFFAB
:10164000E8AE020870477047704730B4C568446818
:101650006A100346ED0704EB02009B6848BFA258DE
:1016600030BC48BFD358184743682BB183682BB9A7
:10167000C06800F0010070471846704701207047AD
:1016800010B51021044628F0A3F9204610BD10B56E
:101690004FF4CE71044628F09BF9204610BD08B5E2
:1016A00000F19803994205D117F070FABDE808409F
:1016B00004F008BA00F5A870814205D117F066FA67
:1016C000BDE8084004F0DEB908BD70B504461E460A
:1016D000BDF91050FFF78EFA2368314620469A6B09
:1016E0009047236829462046DB6BBDE870401847C9
:1016F00010B526220446002128F0F1F92046FFF714
:1017000061FA044B2360FF2384F826300023A36290
:10171000204610BD000203082DE9F04F04468FB0AB
:10172000A146002518F0A2FD904BE56349F8403B27
:101730004846FFF7DDFF04F16C0826234FF6FF7AD9
:101740001A46294640460EAE0293ADF830A028F066
:10175000C6F94046FFF736FA854AE26636F8082DA4
:10176000A4F8922004F1980B314684F894A04046E6
:1017700015F051FB584615F027FB029B04F1D407E6
:1017800029461A46384628F0AAF93846FFF71AFAC9
:10179000784BC4F8D430784BC4F8FC3004F58E7222
:1017A0004FF47F03A4F800A1C4F80451C4F8083131
:1017B00084F80C5184F80D51A4F81051A4F812517A
:1017C000A4F814A1A4F816A1C4F81851104604F501
:1017D000A87A0292FFF78CFF684BC4F81C31C4F85A
:1017E0004851A4F84C51504615F0EEFA644BC4F839
:1017F0008C31644BC4F89431F023C4F898510093B1
:101800002A464FF4A07329464846C4F89041FFF792
:101810005CFF4FF07F42A26629462A464046FFF70A
:10182000E9F931464046ADF8305015F0F4FA584623
:10183000B4223F21FFF7DEF90A230BA8ADF82C30C4
:10184000ADF830304FF0030203460AA8ADF824206B
:101850004FF00401024609A8ADF828100096014691
:10186000584615F00EFA4FF0160C04F5C67E4FF0F0
:101870000F00A4F8D2C0A4F8D000C4F8C0E01B2226
:1018800038461C21CDF80CE0FFF7B4F94FF07F4E3D
:10189000A4F8085104ADC4F804E13946284614F010
:1018A000F1FB95E8070004F5887383E80700324BE5
:1018B0000C93314613233846ADF8343014F028FF2A
:1018C0007023009302984FF484733A221C21FFF78F
:1018D000FCFE4FF07F43C4F8443103F50743BD33AA
:1018E000C4F848310523A4F84C315046B422C42131
:1018F000FFF780F908234FF003024FF00401ADF821
:101900002420ADF828100AAAADF82C30ADF83030FC
:1019100009A90BAB5046009615F0B3F9251D4FF001
:10192000160C039BA4F88AC14FF00F00C4F878315D
:10193000A4F88801494628460FF0B6FE41462846DD
:101940000FF0B2FE594628460FF0AEFE3946284643
:101950000FF0AAFE029928460FF0A6FE284651462F
:101960000FF0A2FE20460FB0BDE8F08FFCB00208D9
:10197000E003030840010308E8AE0208CC020308B4
:10198000E4B002089F16000870477047704730B4F3
:10199000C56844686A100346ED0704EB02009B68C3
:1019A00048BFA25830BC48BFD358184743682BB132
:1019B00083682BB9C06800F0010070471846704773
:1019C0000120704710B51021044628F001F8204688
:1019D00010BD10B54FF4C071044627F0F9FF204642
:1019E00010BD00F19802914208B505D117F0CEF86C
:1019F000BDE8084004F0F6B800F1E002914205D1DC
:101A000017F0C4F8BDE8084004F0DCB800F59472A3
:101A1000914208D10368DB6A984717F0B7F8BDE830
:101A2000084004F0EFB808BD2DE9F04F044685B03A
:101A3000264618F01BFC00277E4BE76346F8403B28
:101A40007D4B236404ADFF2384F866304FF6FF73AB
:101A500025F8043D012204F16C0BA4F84470A4F8AD
:101A60004670A4F84870A4F84A70A4F84C70A4F822
:101A70004E70A4F85070A4F85270C4E91577E76569
:101A8000A4F86070A4F8627084F8647084F865202B
:101A9000A766A4F87070A4F87270A4F87470A4F823
:101AA0007670A4F87870A4F87A70A4F87C70A4F822
:101AB0007E70C4E92077C4F88870A4F88C7084F82C
:101AC00091205E4AE266A4F8923084F89430294668
:101AD00004F1980AA4F88E7084F89070584615F0B6
:101AE0009AF904F1E009504615F0DEFA04F594780D
:101AF000484615F0D9FA404615F0D6FA504BC4F8CE
:101B00007031504BC4F878313A46C4F87C7139468C
:101B10003046C4F87441FFF76DF830464FF4A071B9
:101B2000FEF7E3FF3046F021FEF7E1FF4FF07F4381
:101B3000A3663A4639465846FFF75CF829465846A8
:101B4000ADF80C7015F067F9504669223321FFF7A4
:101B500051F8052302A9ADF8083001932A464FF049
:101B600006035046ADF80C3014F02CFE0C22A4F8FD
:101B7000D0205046FFF708FC4FF0FF3704F5B8724D
:101B80000092C4F8C0204846C4E9357724223321A6
:101B9000FFF730F8019BADF8083002A94FF00603BB
:101BA0002A464846ADF80C3014F00CFE0B22A4F87F
:101BB00018214846FFF7E8FB009BC4F8083140466F
:101BC000C4F81C71C4F82071AC223321FFF712F85D
:101BD000019BADF808302A4602A94FF006034046A3
:101BE000ADF80C3014F0EEFD0A23A4F86031404645
:101BF000FFF7CAFB251D009BC4F85031314628462B
:101C0000C4F86471C4F868710FF04EFD5946284657
:101C10000FF04AFD514628460FF046FD494628463A
:101C20000FF042FD284641460FF03EFD204605B02C
:101C3000BDE8F08F48B1020800020308E003030882
:101C400030B10208E319000870477047704730B49C
:101C5000C56844686A100346ED0704EB02009B6800
:101C600048BFA25830BC48BFD358184743682BB16F
:101C700083682BB9C06800F00100704718467047B0
:101C80000120704710B51021044627F0A1FE204620
:101C900010BD10B54FF4C071044627F099FE2046E0
:101CA00010BD00F19802914210B505D116F06EFFFB
:101CB000BDE8104003F076BF00F1E002914205D18B
:101CC00016F064FFBDE8104003F0DCBE00F594722E
:101CD000914204D10368BDE81040DB6A184710BD8B
:101CE0002DE9F04F044685B0264618F0BFFA4FF0B4
:101CF000000B814BC4F83CB046F8403B7F4B23645B
:101D000004ADFF2384F866304FF6FF7325F8043DD9
:101D1000012204F16C0AA4F844B0A4F846B0A4F877
:101D200048B0A4F84AB0A4F84CB0A4F84EB0A4F857
:101D300050B0A4F852B0C4E915BBC4F85CB0A4F824
:101D400060B0A4F862B084F864B084F86520C4F888
:101D500068B0A4F870B0A4F872B0A4F874B0A4F895
:101D600076B0A4F878B0A4F87AB0A4F87CB0A4F85F
:101D70007EB0C4E920BBC4F888B0A4F88CB084F865
:101D800091205F4AE266A4F8923084F894302946A4
:101D900004F19809A4F88EB084F890B0504615F07C
:101DA0003AF804F1E008484615F07EF904F5947716
:101DB000404615F079F9384615F076F9514BC4F8DC
:101DC0007031514BC4F878315A46C4F87CB1594649
:101DD0003046C4F87441FEF70DFF30464FF4A07151
:101DE000FEF783FE3046F021FEF781FE4FF07F4381
:101DF000A3665A4659465046FEF7FCFE2946504611
:101E0000ADF80CB015F007F848462A222D21FEF750
:101E1000F1FE4FF0050B2A4602A94FF00603484693
:101E2000ADF80C30ADF808B014F0CCFC4FF0060360
:101E3000A4F8D0304846FFF7A7FA4FF0FF3304F577
:101E4000B872C4E935330092C4F8C0204046662217
:101E50002D210193FEF7CEFE4FF006032A4602A97C
:101E60004046ADF80C30ADF808B014F0ABFC40467D
:101E7000A4F818B1FFF788FA019BC4F81C31C4F824
:101E80002031009BC4F808313846A2222D21FEF7EC
:101E9000B1FE4FF0060302A92A463846ADF80C30D1
:101EA000ADF808B014F08EFC0422A4F86021384686
:101EB000FFF76AFA019BC4F86431251DC4F8683144
:101EC000009BC4F85031314628460FF0EDFB5146D7
:101ED00028460FF0E9FB494628460FF0E5FB41464E
:101EE00028460FF0E1FB284639460FF0DDFB20467F
:101EF00005B0BDE8F08F00BF98B1020800020308EA
:101F0000E003030880B10208A31C0008806A704740
:101F1000006B7047406B704780F82C10704710B40E
:101F20000468036BD4F8A4405A43594323465DF830
:101F3000044B1847D0ED0C7A0368F8EEE77AD3F833
:101F4000A43020EE270AB5EEC00AF1EE10FA17DB36
:101F5000B6EE007A30EE070ABDEEC07A17EE101A20
:101F600060EEA70AF5EEC00AF1EE10FA1CDBF6EE01
:101F7000007A70EEA70AFDEEE07A17EE902A184775
:101F8000BDEEC07AF8EEC76A17EE102A30EE660A88
:101F9000F7EE086A30EE260A511EBDEEC00A10EEBA
:101FA000102A0A441146DBE7FDEEE07AB8EEE77A44
:101FB00017EE902A70EEC70AB7EE087A70EE870A1D
:101FC000013AFDEEE00A10EE90CA94446246D6E76C
:101FD00010B40368046BD3F8B03062435DF8044B6F
:101FE0001847D0ED0C7A0368F8EEE77AD3F8B030F2
:101FF00027EE800AB5EEC00AF1EE10FA08DBF6EE25
:10200000007A30EE270AFDEEC07A17EE902A1847C4
:10201000FDEEC07AB8EEE77A17EE902A30EE470A66
:10202000B7EE087A30EE070A013ABDEEC00A10EEAC
:1020300010CA94446246EAE710B40468436BD4F8CB
:10204000BC405A43594323465DF8044B1847D0ED32
:102050000D7A0368F8EEE77AD3F8BC3020EE270A51
:10206000B5EEC00AF1EE10FA17DBB6EE007A30EEEC
:10207000070ABDEEC07A17EE101A60EEA70AF5EE59
:10208000C00AF1EE10FA1CDBF6EE007A70EEA70A39
:10209000FDEEE07A17EE902A1847BDEEC07AF8EE12
:1020A000C76A17EE102A30EE660AF7EE086A30EEBD
:1020B000260A511EBDEEC00A10EE102A0A4411462F
:1020C000DBE7FDEEE07AB8EEE77A17EE902A70EEE5
:1020D000C70AB7EE087A70EE870A013AFDEEE00A09
:1020E00010EE90CA94446246D6E710B40368446B7D
:1020F000D3F8C03062435DF8044B1847D0ED0D7A39
:102100000368F8EEE77AD3F8C03027EE800AB5EE20
:10211000C00AF1EE10FA08DBF6EE007A30EE270A7C
:10212000FDEEC07A17EE902A1847FDEEC07AB8EEA1
:10213000E77A17EE902A30EE470AB7EE087A30EECB
:10214000070A013ABDEEC00A10EE10CA9444624676
:10215000EAE7D0F82C31026B002B07DB02EB4300DF
:10216000022390FBF2F090FBF3F070476FF0010058
:1021700000FB03200138022390FBF2F090FBF3F008
:1021800040427047D0ED4B7A90ED0C0AF8EEE77ABA
:10219000B8EEC00A87EE800A7047D0F82C0170476D
:1021A000D0F83031026B002B07DB02EB4300022337
:1021B00090FBF2F090FBF3F070476FF0010000FB32
:1021C00003200138022390FBF2F090FBF3F0404231
:1021D0007047D0ED4C7A90ED0C0AF8EEE77AB8EE45
:1021E000C00A87EE800A7047D0F830017047D0F8F7
:1021F0003431426B002B07DB02EB4300022390FBE0
:10220000F2F090FBF3F070476FF0010000FB032049
:102210000138022390FBF2F090FBF3F0404270474C
:10222000D0ED4D7A90ED0D0AF8EEE77AB8EEC00ADF
:1022300087EE800A7047D0F834017047D0F8383103
:10224000426B002B07DB02EB4300022390FBF2F012
:1022500090FBF3F070476FF0010000FB03200138A2
:10226000022390FBF2F090FBF3F040427047D0ED78
:102270004E7A90ED0D0AF8EEE77AB8EEC00A87EED6
:10228000800A7047D0F83801704710467047D0F880
:102290003C21036852F82110D3F814311847D0F8C4
:1022A0004021036852F82110D3F81831184780F8FC
:1022B0002610704790F82600704701637047006B46
:1022C00070470120704770477047006C18B1036871
:1022D000D3F884301847704730B5B2F91441B2F8DA
:1022E0001A11B2F94050B2F8422044802144521AE7
:1022F000002101808580C28030BD10B54280BDF9CB
:102300000840BDF90C2004808280C38010BD0B689A
:102310000846D3F8D43018470B680846D3F8E030A5
:102320001847B1F914017047B1F81401B1F81A3126
:102330000344B1F84200C01A00B27047B1F9160167
:102340007047B1F81601B1F818310344B1F84000F4
:10235000C01A00B270470B680846D3F81431114612
:10236000184730B5B2F91651B2F8181105806C183B
:10237000B2F84010B2F94220C280091B0024448008
:10238000818030BD02808380BDF90020BDF904301A
:102390004280C38070470B680846D3F8EC3018477A
:1023A0000B680846D3F8F8301847B1F916017047A2
:1023B000B1F81601B1F818310344B1F84000C01A61
:1023C00000B27047B1F914017047B1F81401B1F8C7
:1023D0001A310344B1F84200C01A00B270470B68CA
:1023E0000846D3F8183111461847704770477047B0
:1023F00070477047704730B4C56844686A10034638
:10240000ED0704EB02009B6848BFA25830BC48BFF0
:10241000D358184743682BB183682BB9C06800F0C4
:1024200001007047184670470120704710B54FF4FF
:102430003571044627F0CCFA204610BD10B5442172
:10244000044627F0C5FA204610BD10B544210446C5
:1024500027F0BEFA204610BD10B51021044627F023
:10246000B7FA204610BD10B541F2E871044627F0D6
:10247000AFFA204610BD90F82C300BB10FF0D0B859
:1024800070470000002908B503DBB0F91E318B420C
:1024900006DC064B064A074840F2EB6127F0A4FA37
:1024A000D0F8403153F8210008BD00BF4EB50208F6
:1024B00083B6020871B50208002908B503DBB0F93C
:1024C0001E318B4206DC064B064A074840F2DB61B0
:1024D00027F08AFAD0F83C3153F8210008BD00BF3C
:1024E0004EB5020835B6020871B5020838B50A685B
:1024F000D0E90D54D2F88C20084690472946024670
:102500002046BDE8384012F08DB938B50A68D0E9E8
:102510000D54D2F89420084690472946024620469A
:10252000BDE8384012F07EB900F2DC40884208B5C0
:1025300005D116F02BFBBDE8084003F013BB08BD26
:1025400037B501AB154617F0C7FC00284FEA401419
:102550002A4601994FF0200004DB17F0DCFC2044F0
:1025600003B030BD17F0D7FC201AF9E738B5B0F941
:102570001441B0F81A51D0F838216319B0F842501C
:10258000ED1AD0F834312DB2C81AD21A691EFFF7ED
:10259000D7FF2C44013CC0EB441038BD38B504468D
:1025A000D0F82C51B0F81631D0F83021B0F818011D
:1025B0001844B4F840301B1A1BB2481B521B591E5A
:1025C000FFF7BEFFB4F9163100EB431038BD000031
:1025D00070B5FF2200230272124E134A0260C0E956
:1025E00003333268436092F87610044609B1D06C28
:1025F00000B990680368DB6A98473368B0FA80F5E1
:10260000D86C6D0928B10368DB6A9847002808BFB9
:1026100001252DB9054B064A06482C2127F0E4F97F
:10262000204670BD94380120E0F6020894B40208F8
:10263000FCB50208F2B4020810B5044611F086FC9D
:102640000B4A226000230122C4E90D23094AE263F8
:102650004FF6FF72A4F840202E22236384F8443002
:10266000A4F84630A4F84820E364204610BD00BF1B
:1026700088FF0208E8AE02082DE9F04F04468FB04B
:10268000A146002617F0F2FDE94BE66349F8403B0E
:10269000E84B2364FF230DF1380A84F8663004F117
:1026A0006C0303934FF6FF732AF8043D0127E24AB7
:1026B000A4F8446004F198055146A4F84660A4F8D3
:1026C0004860A4F84A60A4F84C60A4F84E60A4F8EE
:1026D0005060A4F85260C4E91566E665A4F860602D
:1026E000A4F8626084F8646084F86570A666A4F853
:1026F0007060A4F87260A4F87460A4F87660A4F81E
:102700007860A4F87A60A4F87C60A4F87E60C4E9DC
:102710002066C4F88860E266A4F8923084F89430A9
:10272000A4F88C60A4F88E6084F8906084F89170AE
:10273000039814F070FB3221284612F001F8BF4BC9
:10274000C4F8983004F5EE73C4F8D43104F5297355
:1027500031223146C4F8D8312846FFF7E0FBB84BA8
:10276000C4F8983004F55B731846049311F0EEFB3F
:10277000B44BC4F86C33022384F89A3304F56773BE
:1027800018460993FFF724FFAF4BC4F89C3304F5B8
:102790006D73C4F8B0631846059311F0D7FBAB4BCB
:1027A000C4F8B4334FF00A0B04F57E73C4F8E46345
:1027B000C4F8E873C4F8ECB384F8F073C4F8F463B5
:1027C0001846069311F0C2FBA14BC4F8F83304F28B
:1027D0003C43C4F82864C4F82C74C4F830B484F8BA
:1027E0003474C4F8386418460793FFF725FF994BF3
:1027F000C4F83C3404F28C431846089304F2DC48D5
:10280000FFF71AFF944BC4F88C34404614F0DCFAFE
:10281000924BC4F81835924BC4F82035C4F824659F
:102820004FF4965104F5A560C4F81C4514F06AFCF9
:10283000F02332463146009348464FF4A073FEF72A
:1028400044FF4FF07F43A366324631460398FEF7BC
:10285000D1F951460398ADF8346014F0DCFA3246F1
:102860003946284611F0E6FF32464FF47A71284681
:1028700012F004F8C62332460093192140F20F13D8
:102880002846FEF722FF3346324631460096284658
:1028900011F007FF14231A4619460093284611F039
:1028A00000FE28226FF009012846FFF738FB5A4640
:1028B0006FF009012846FFF7BFFB3A46D4F8E8134A
:1028C000D4F8EC0311F0AEFF4FF0050A4FF07F4350
:1028D000C4F8E433C4F8E87384F8F0730599C4F8D5
:1028E000ECA3284611F0E8FD4FF47A72D4F82C14CA
:1028F000D4F8300411F096FF4FF47A764FF07F430E
:102900004FF4FA6BC4F8283484F834740699C4F888
:102910002C642846C4F830B411F0CEFD3A46D4F801
:102920007014D4F8740411F07DFF0923C4F8707496
:102930004C4FA4F87C340799C4F874A42846C4F812
:102940006C7411F0DDFD3246D4F8C014D4F8C40420
:1029500011F068FF0823A4F8CC340899C4F8C064C7
:102960002846C4F8C4B4C4F8BC7411F0B7FD099982
:102970000498C4F8B07311F0E5F9032384F89A338E
:102980000499284611F098FDD4ED327AF8EEE77AF2
:10299000BAEE047A67EE877AF5EEC07AF1EE10FAB5
:1029A000C1F2DD81B6EE007A77EE877AFDEEE77A46
:1029B00017EE901AD4ED337A9FED2B7AF8EEE77A82
:1029C00067EE877AF5EEC07AF1EE10FAC1F2DC819B
:1029D000B6EE007A77EE877AFDEEE77A17EE902A68
:1029E000284611F06FFFD4ED327AF8EEE77ABAEEAE
:1029F000027A67EE877AF5EEC07AF1EE10FAC1F24C
:102A0000D881B6EE007A77EE877AFDEEE77A17EE98
:102A1000901AD4ED337A9FED157AF8EEE77A67EEE7
:102A2000877AF5EEC07AF1EE10FAC1F2D78137E07D
:102A3000D0B5020800020308E0030308CCF902083D
:102A400048B30208BCFD0208C0F60208D0B1020873
:102A50008CB2020840FE0208E4FE020884B40208B8
:102A600029250008C59714FF8B6C7F4085EB11C0AA
:102A70008B6CABC021B07AC0AC1C3ABF022B073EB6
:102A8000E3A533C01904DEC0B4C8FEC00C027BC08D
:102A900000000000F2D235400AD7F34085EBED404C
:102AA000B6EE007A77EE877AFDEEE77A17EE902A97
:102AB000284611F007FFD4ED327AF8EEE77ABAEE45
:102AC000007A67EE877AF5EEC07AF1EE10FAC1F27D
:102AD0009A81B6EE007A77EE877AFDEEE77A17EE06
:102AE000901AD4ED337A1FED1E7AF8EEE77A67EE8E
:102AF000877AF5EEC07AF1EE10FAC1F29981B6EE5E
:102B0000007A77EE877AFDEEE77A17EE902A28466C
:102B100011F0D8FED4ED327AF8EEE77AB9EE0C7AFD
:102B200067EE877AF5EEC07AF1EE10FAC1F2958180
:102B3000B6EE007A77EE877AFDEEE77A17EE901A16
:102B4000D4ED337A1FED357AF8EEE77A67EE877ABF
:102B5000F5EEC07AF1EE10FAC1F29481B6EE007A89
:102B600077EE877AFDEEE77A17EE902A284611F085
:102B7000A9FED4ED327AF8EEE77AB9EE087A67EE7C
:102B8000877AF5EEC07AF1EE10FAC1F29081B6EED6
:102B9000007A77EE877AFDEEE77A17EE901AD4ED99
:102BA000337A1FED4B7AF8EEE77A67EE877AF5EE27
:102BB000C07AF1EE10FAC1F28F81B6EE007A77EEAC
:102BC000877AFDEEE77A17EE902A284611F07AFE12
:102BD000D4ED327AF8EEE77AB9EE047A67EE877AC6
:102BE000F5EEC07AF1EE10FAC1F28B81B6EE007A02
:102BF00077EE877AFDEEE77A17EE901AD4ED337A06
:102C00001FED627AF8EEE77A67EE877AF5EEC07A22
:102C1000F1EE10FAC1F28A81B6EE007A77EE877A89
:102C2000FDEEE77A17EE902A284611F04BFED4ED20
:102C3000327AF8EEE77AB9EE007A67EE877AF5EE47
:102C4000C07AF1EE10FAC1F28681B6EE007A77EE24
:102C5000877AFDEEE77A17EE901AD4ED337A1FEDFE
:102C6000787AF8EEE77A67EE877AF5EEC07AF1EED9
:102C700010FAC1F28581B6EE007A77EE877AFDEE22
:102C8000E77A17EE902A284611F01CFED4ED327A2E
:102C9000F8EEE77AB8EE087A67EE877AF5EEC07A52
:102CA000F1EE10FAC1F28181B6EE007A77EE877A02
:102CB000FDEEE77A17EE901AD4ED337A1FED8F7A96
:102CC000F8EEE77A67EE877AF5EEC07AF1EE10FA61
:102CD000C1F28081B6EE007A77EE877AFDEEE77A70
:102CE00017EE902A284611F0EDFDD4ED327AF8EE79
:102CF000E77AB8EE007A67EE877AF5EEC07AF1EE01
:102D000010FAC1F27C81B6EE007A77EE877AFDEE9A
:102D1000E77A17EE901AD4ED337A1FEDA57AF8EE24
:102D2000E77A67EE877AF5EEC07AF1EE10FAC1F233
:102D30007B81B6EE007A77EE877AFDEEE77A17EEC2
:102D4000902A284611F0BEFDD4ED327AF8EEE77AEB
:102D5000F5EEC07AF1EE10FA01F27B81B6EE007A60
:102D600077EE677AFDEEE77A17EE901AD4ED337AB4
:102D70001FEDBA7AF8EEE77A67EE877AF5EEC07A59
:102D8000F1EE10FAC1F27C81B6EE007A77EE877A26
:102D9000FDEEE77A17EE902A284611F093FDD4ED68
:102DA000327A1FEDC57AF8EEE77A67EE877AF4EEAD
:102DB000C77AF1EE10FAC1F27881B6EE007A77EEBA
:102DC000877AFDEEE77A17EE901AD4ED337A1FED8D
:102DD000CF7AF8EEE77A67EE877AF5EEC07AF1EE11
:102DE00010FAC1F27781B6EE007A77EE877AFDEEBF
:102DF000E77A17EE902A284611F064FDD4ED327A76
:102E0000F8EEE77AF5EEC07AF1EE10FAC1F27781CA
:102E1000B6EE007A77EE877AFDEEE77A17EE901A33
:102E2000D4ED337A1FEDE47AF8EEE77A67EE877A2D
:102E3000F5EEC07AF1EE10FAC1F27681B6EE007AC4
:102E400077EE877AFDEEE77A17EE902A284611F0A2
:102E500039FDD4ED327AF8EEE77A77EEA77AF5EE1F
:102E6000C07AF1EE10FAC1F27481B6EE007A77EE14
:102E7000877AFDEEE77A17EE901AD4ED337A1FEDDC
:102E8000F97AF8EEE77A67EE877AF5EEC07AF1EE36
:102E900010FAC1F27381B6EE007A77EE877AFDEE12
:102EA000E77A17EE902A284611F00CFDD4ED327A1D
:102EB000F8EEE77AB0EE087A67EE877AF5EEC07A38
:102EC000F1EE10FAC1F26F81B6EE007A77EE877AF2
:102ED000FDEEE77A17EE901AD4ED337A9FEDF37A90
:102EE000F8EEE77A67EE877AF5EEC07AF1EE10FA3F
:102EF000C1F26E81B6EE007A77EE877AFDEEE77A60
:102F000017EE902A284611F0DDFCD4ED327AF8EE67
:102F1000E77AB1EE007A67EE877AF5EEC07AF1EEE5
:102F200010FAC1F26A81B6EE007A77EE877AFDEE8A
:102F3000E77A17EE901AD4ED337AFAEEEE7AF5EEE0
:102F4000C07AF1EE10FAC1F26D81B6EE007A77EE3A
:102F5000877AFDEEE77A17EE902A284611F0B2FC48
:102F6000D4ED327AF8EEE77AB1EE047A67EE877A3A
:102F7000F5EEC07AF1EE10FAC1F26981B6EE007A90
:102F800077EE877AFDEEE77A17EE901AD4ED337A72
:102F90009FEDC77AF8EEE77A67EE877AF5EEC07AAA
:102FA000F1EE10FAC1F26881B6EE007A77EE877A18
:102FB000FDEEE77A17EE902A284611F083FCD4ED57
:102FC000327AF8EEE77AB1EE087A67EE877AF5EEB4
:102FD000C07AF1EE10FAC1F26481B6EE007A77EEB3
:102FE000877AFDEEE77A17EE901AD4ED337A9FEDEB
:102FF000B17AF8EEE77A67EE877AF5EEC07AF1EE0D
:1030000010FAC1F26381B6EE007A77EE877AFDEEB0
:10301000E77A17EE902A284611F054FCD4ED327A64
:10302000F8EEE77AB1EE0C7A67EE877AF5EEC07AC1
:10303000F1EE10FAC1F25F81B6EE007A77EE877A90
:10304000FDEEE77A17EE901AD4ED337A9FED9A7A77
:10305000F8EEE77A67EE877AF5EEC07AF1EE10FACD
:10306000C1F25E81B6EE007A77EE877AFDEEE77AFE
:1030700017EE902A284611F025FCD4ED327AF8EEAE
:10308000E77AB2EE007A67EE877AF5EEC07AF1EE73
:1030900010FAC1F25A81B6EE007A77EE877AFDEE29
:1030A000E77A17EE901AD4ED337A9FED847AF8EE32
:1030B000E77A67EE877AF5EEC07AF1EE10FAC1F2A0
:1030C0005981B6EE007A77EE877AFDEEE77A17EE51
:1030D000902A284611F0F6FBD4ED327AF8EEE77A22
:1030E000B2EE027A67EE877AF5EEC07AF1EE10FA68
:1030F000C1F25581B6EE007A77EE877AFDEEE77A77
:1031000017EE901AD4ED337A9FED6D7AF8EEE77AE8
:1031100067EE877AF5EEC07AF1EE10FAC1F25481CB
:10312000B6EE007A77EE877AFDEEE77A17EE902A10
:10313000284611F0C7FBD4ED327AF8EEE77AB2EE0A
:10314000047A67EE877AF5EEC07AF1EE10FAC1F2F2
:103150005081B6EE007A77EE877AFDEEE77A17EEC9
:10316000901AD4ED337A9FED577AF8EEE77A67EE4E
:10317000877AF5EEC07AF1EE10FAC1F24F81B6EE21
:10318000007A77EE877AFDEEE77A17EE902A2846E6
:1031900011F098FBD4ED327AF8EEE77AB2EE067AC7
:1031A00067EE877AF5EEC07AF1EE10FAC1F24B8144
:1031B000B6EE007A77EE877AFDEEE77A17EE901A90
:1031C000D4ED337A9FED407AF8EEE77A67EE877AAE
:1031D000F5EEC07AF1EE10FAC1F24A81B6EE007A4D
:1031E00077EE877AFDEEE77A17EE902A284611F0FF
:1031F00069FBD4ED327AF8EEE77AB2EE087A67EE40
:10320000877AF5EEC07AF1EE10FAC1F24681B6EE99
:10321000007A77EE877AFDEEE77A17EE901AD4ED12
:10322000337A9FED2A7AF8EEE77A67EE877AF5EE41
:10323000C07AF1EE10FAC1F24581B6EE007A77EE6F
:10324000877AFDEEE77A17EE902A284611F03AFBCE
:10325000D4ED327AF8EEE77AB2EE0A7A67EE877A40
:10326000F5EEC07AF1EE10FAC1F24181B6EE007AC5
:1032700077EE877AFDEEE77A17EE901AD4ED337A7F
:103280009FED137AF8EEE77A67EE877AF5EEC07A6B
:10329000F1EE10FAC1F24081B6EE007A77EE877A4D
:1032A000FDEEE77A17EE902A2AE000BFAAF162400D
:1032B00054E3A53E273158409CC4AC40D9CE47408A
:1032C0003BDF37C0643B07C1583918C13D0AB3C062
:1032D000894160BE06811540F6285C3F560EEDBF61
:1032E000A245E6BF0AD713408716F540DD241C41EE
:1032F000EC51D040E5D0223E2FDD94C0B4C89EC032
:10330000284611F0DFFAD4ED327AF8EEE77AB2EE21
:103310000C7A67EE877AF5EEC07AF1EE10FAC1F218
:103320001081B6EE007A77EE877AFDEEE77A17EE37
:10333000901AD4ED337A1FED197AF8EEE77A67EE3A
:10334000877AF5EEC07AF1EE10FAC1F20F81B6EE8F
:10335000007A77EE877AFDEEE77A17EE902A284614
:1033600011F0B0FAD4ED327AF8EEE77AB2EE0E7AD6
:1033700067EE877AF5EEC07AF1EE10FAC1F20B81B2
:10338000B6EE007A77EE877AFDEEE77A17EE901ABE
:10339000D4ED337A1FED307AF8EEE77A67EE877A6C
:1033A000F5EEC07AF1EE10FAC1F20A81B6EE007ABB
:1033B00077EE877AFDEEE77A17EE902A284611F02D
:1033C00081FAD4ED327AF8EEE77AB3EE007A67EE5E
:1033D000877AF5EEC07AF1EE10FAC1F20681B6EE08
:1033E000007A77EE877AFDEEE77A17EE901AD4ED41
:1033F000337A1FED467AF8EEE77A67EE877AF5EED4
:10340000C07AF1EE10FAC1F20581B6EE007A77EEDD
:10341000877AFDEEE77A17EE902A284611F052FAE5
:10342000D4ED327AF8EEE77AB3EE017A67EE877A76
:10343000F5EEC07AF1EE10FAC1F20181B6EE007A33
:1034400077EE877AFDEEE77A17EE901AD4ED337AAD
:103450001FED5D7AF8EEE77A67EE877AF5EEC07ACF
:10346000F1EE10FAC1F20081B6EE007A77EE877ABB
:10347000FDEEE77A17EE902A284611F023FAD4EDF4
:10348000327AF8EEE77AB3EE027A67EE877AF5EEF3
:10349000C07AF1EE10FAC1F2FC80B6EE007A77EE57
:1034A000877AFDEEE77A17EE901AD4ED337A1FEDA6
:1034B000737AF8EEE77A67EE877AF5EEC07AF1EE86
:1034C00010FAC1F2FB80B6EE007A77EE877AFDEE55
:1034D000E77A17EE902A284611F0F4F9D4ED327A03
:1034E000F8EEE77AB3EE037A67EE877AF5EEC07A04
:1034F000F1EE10FAC1F2F780B6EE007A77EE877A35
:10350000FDEEE77A17EE901AD4ED337A1FED8A7A42
:10351000F8EEE77A67EE877AF5EEC07AF1EE10FA08
:10352000C1F2F680B6EE007A77EE877AFDEEE77AA2
:1035300017EE902A284611F0C5F9D4ED327AF8EE4C
:10354000E77AB3EE047A67EE877AF5EEC07AF1EEA9
:1035500010FAC1F2F280B6EE007A77EE877AFDEECD
:10356000E77A17EE901AD4ED337A1FEDA07AF8EED1
:10357000E77A67EE877AF5EEC07AF1EE10FAC1F2DB
:10358000F180B6EE007A77EE877AFDEEE77A17EEF5
:10359000902A284611F096F9D4ED327AF8EEE77ABF
:1035A000B3EE057A67EE877AF5EEC07AF1EE10FA9F
:1035B000C1F2ED80B6EE007A77EE877AFDEEE77A1B
:1035C00017EE901AD4ED337A1FEDB77AF8EEE77A5A
:1035D00067EE877AF5EEC07AF1EE10FAC1F2EC8070
:1035E000B6EE007A77EE877AFDEEE77A17EE902A4C
:1035F000284611F067F9D4ED327AF8EEE77AB3EEA7
:10360000067A67EE877AF5EEC07AF1EE10FAC1F22B
:10361000E880B6EE007A77EE877AFDEEE77A17EE6D
:10362000901AD4ED337A1FEDCD7AF8EEE77A67EE93
:10363000877AF5EEC07AF1EE10FAC1F2E780B6EEC5
:10364000007A77EE877AFDEEE77A17EE902A284621
:1036500011F038F9D4ED327AF8EEE77AB3EE077A62
:1036600067EE877AF5EEC07AF1EE10FAC1F2E380E8
:10367000B6EE007A77EE877AFDEEE77A17EE901ACB
:10368000D4ED337A1FEDE47AF8EEE77A67EE877AC5
:10369000F5EEC07AF1EE10FAC1F2E280B6EE007AF1
:1036A00077EE877AFDEEE77A17EE902A284611F03A
:1036B00009F9D4ED327AF8EEE77AB3EE087A67EEDC
:1036C000877AF5EEC07AF1EE10FAC1F2DE80B6EE3E
:1036D000007A77EE877AFDEEE77A17EE901AD4ED4E
:1036E000337A1FEDFA7AF8EEE77A67EE877AF5EE2D
:1036F000C07AF1EE10FAC1F2DD80B6EE007A77EE14
:10370000877AFDEEE77A17EE902A284611F0DAF86C
:10371000D4ED327AF8EEE77AB3EE097A67EE877A7B
:10372000F5EEC07AF1EE10FAC1F2D980B6EE007A69
:1037300077EE877AFDEEE77A17EE901AD4ED337ABA
:103740009FEDFD7AF8EEE77A67EE877AF5EEC07ABC
:10375000F1EE10FAC1F2D880B6EE007A77EE877AF1
:10376000FDEEE77A17EE902A284611F0ABF8D4ED7B
:10377000327AF8EEE77AB3EE0A7A67EE877AF5EEF8
:10378000C07AF1EE10FAC1F2D480B6EE007A77EE8C
:10379000877AFDEEE77A17EE901AD4ED337A9FED33
:1037A000E77AF8EEE77A67EE877AF5EEC07AF1EE1F
:1037B00010FAC1F2D380B6EE007A77EE877AFDEE8A
:1037C000E77A17EE902A284611F07CF8D4ED327A89
:1037D000F8EEE77AB3EE0B7A67EE877AF5EEC07A09
:1037E000F1EE10FAC1F2CF80B6EE007A77EE877A6A
:1037F000FDEEE77A17EE901AD4ED337A9FEDD07A8A
:10380000F8EEE77A67EE877AF5EEC07AF1EE10FA15
:10381000C1F2CE80B6EE007A77EE877AFDEEE77AD7
:1038200017EE902A284611F04DF8D4ED327AF8EED2
:10383000E77AB3EE0C7A67EE877AF5EEC07AF1EEAE
:1038400010FAC1F2CA80B6EE007A77EE877AFDEE02
:10385000E77A17EE901AD4ED337A9FEDBA7AF8EE44
:10386000E77A67EE877AF5EEC07AF1EE10FAC1F2E8
:10387000C980B6EE007A77EE877AFDEEE77A17EE2A
:10388000902A284611F01EF8D4ED327AF8EEE77A45
:10389000B3EE0D7A67EE877AF5EEC07AF1EE10FAA4
:1038A000C1F2C580B6EE007A77EE877AFDEEE77A50
:1038B00017EE901AD4ED337A9FEDA37AF8EEE77AFB
:1038C00067EE877AF5EEC07AF1EE10FAC1F2C480A5
:1038D000B6EE007A77EE877AFDEEE77A17EE902A59
:1038E000284610F0EFFFD4ED327AF8EEE77AB3EE27
:1038F0000E7A67EE877AF5EEC07AF1EE10FAC1F231
:10390000C080B6EE007A77EE877AFDEEE77A17EEA2
:10391000901AD4ED337A9FED8D7AF8EEE77A67EE60
:10392000877AF5EEC07AF1EE10FAC1F2BF80B6EEFA
:10393000007A77EE877AFDEEE77A17EE902A28462E
:1039400010F0C0FFD4ED327AF8EEE77AB3EE0F7ADA
:1039500067EE877AF5EEC07AF1EE10FAC1F2BB801D
:10396000B6EE007A77EE877AFDEEE77A17EE901AD8
:10397000D4ED337A9FED767AF8EEE77A67EE877AC0
:10398000F5EEC07AF1EE10FAC1F2BA80B6EE007A26
:1039900077EE877AFDEEE77A17EE902A284610F048
:1039A00091FFD4ED327A9FED6B7AF8EEE77A67EE0D
:1039B000877AF5EEC07AF1EE10FAC1F2B680B6EE73
:1039C000007A77EE877AFDEEE77A17EE901AD4ED5B
:1039D000337A9FED617AF8EEE77A67EE877AF5EE53
:1039E000C07AF1EE10FAC1F2B580B6EE007A77EE49
:1039F000877AFDEEE77A17EE902A284610F062FFEC
:103A0000D4ED327A9FED557AF8EEE77A67EE877A51
:103A1000F5EEC07AF1EE10FAC1F2B180B6EE007A9E
:103A200077EE877AFDEEE77A17EE901AD4ED337AC7
:103A30009FED4B7AF8EEE77A67EE877AF5EEC07A7B
:103A4000F1EE10FAC1F2B080B6EE007A77EE877A26
:103A5000FDEEE77A17EE902A284610F033FFD4EDFA
:103A6000327A9FED407AF8EEE77A67EE877AF5EEE4
:103A7000C07AF1EE10FAC1F2AC80B6EE007A77EEC1
:103A8000877AFDEEE77A17EE901AD4ED337A9FED40
:103A9000367AF8EEE77A67EE877AF5EEC07AF1EEDD
:103AA00010FAC1F2AB80B6EE007A77EE877AFDEEBF
:103AB000E77A17EE902A284610F004FFD4ED327A08
:103AC0009FED2A7AF8EEE77A67EE877AF5EEC07A0C
:103AD000F1EE10FAC1F2A780B6EE007A77EE877A9F
:103AE000FDEEE77A17EE901AD4ED337A9FED207A47
:103AF000F8EEE77A67EE877AF5EEC07AF1EE10FA23
:103B0000C1F2A680B6EE007A77EE877AFDEEE77A0C
:103B100017EE902A284610F0D5FED4ED327A9FEDAC
:103B2000157AF8EEE77A67EE877AF5EEC07AF1EE6D
:103B300010FAC1F2A2802DE0B6F3FDBF91ED7C3EFC
:103B400048E19ABF508DABC0AC1C02C1B81EC5C0C5
:103B50006F1203BC000000429CC4C4400000044239
:103B6000DD240241000008423BDFAB4000000C4274
:103B70006DE79B3F00001042DBF97EBE000014425F
:103B800091EDFC3F00001842F0A79E4000001C424F
:103B9000560E9540B6EE007A77EE877AFDEEE77A1C
:103BA00017EE901AD4ED337A1FED0D7AF8EEE77A1E
:103BB00067EE877AF5EEC07AF1EE10FAC1F2728004
:103BC000B6EE007A77EE877AFDEEE77A17EE902A66
:103BD000284610F077FED4ED327A1FED187AF8EE11
:103BE000E77A67EE877AF5EEC07AF1EE10FAC1F265
:103BF0006E80B6EE007A77EE877AFDEEE77A17EE02
:103C0000901AD4ED337A1FED227AF8EEE77A67EE58
:103C1000877AF5EEC07AF1EE10FAC1F26D80B6EE59
:103C2000007A77EE877AFDEEE77A17EE902A28463B
:103C300010F048FED4ED327A1FED2E7AF8EEE77AD6
:103C400067EE877AF5EEC07AF1EE10FAC1F269807C
:103C5000B6EE007A77EE877AFDEEE77A17EE901AE5
:103C6000D4ED337A1FED387AF8EEE77A67EE877A8B
:103C7000F5EEC07AF1EE10FAC1F26880B6EE007A85
:103C800077EE877AFDEEE77A17EE902A284610F055
:103C900019FED4ED327A1FED437AF8EEE77A67EE3B
:103CA000877AF5EEC07AF1EE10FAC1F26480B6EED2
:103CB000007A77EE877AFDEEE77A17EE901AD4ED68
:103CC000337A1FED4D7AF8EEE77A67EE877AF5EEF4
:103CD000C07AF1EE10FAC1F26380B6EE007A77EEA8
:103CE000877AFDEEE77A17EE902A284610F0EAFD73
:103CF0004046B4228221FCF77DFF0323ADF8283033
:103D00000423ADF82C300A23ADF83030ADF8343050
:103D10000DAB0BAA00930AA90CAB404612F0B1FF01
:103D20000F23A4F814351623261DA4F8163504F520
:103D3000A363C4F80435494630460DF0B5FC039939
:103D400030460DF0B1FC294630460DF0ADFC304652
:103D500041460DF0A9FC20460FB0BDE8F08FBDEE46
:103D6000E77AF8EEC76A17EE103A77EEE67AF7EEE2
:103D7000086A77EEA67A591EFDEEE77A17EE903ABA
:103D80000B441946FEF716BEBDEEE77AF8EEC76A99
:103D900017EE103A77EEE67AF7EE086A77EEA67A33
:103DA0005A1EFDEEE77A17EE903A13441A46FEF7D4
:103DB00017BEBDEEE77AF8EEC76A17EE103A77EE57
:103DC000E67AF7EE086A77EEA67A591EFDEEE77AF4
:103DD00017EE903A0B441946FEF71BBEBDEEE77A8C
:103DE000F8EEC76A17EE103A77EEE67AF7EE086A51
:103DF00077EEA67A5A1EFDEEE77A17EE903A134454
:103E00001A46FEF755BEBDEEE77AF8EEC76A17EE22
:103E1000103A77EEE67AF7EE086A77EEA67A591E40
:103E2000FDEEE77A17EE903A0B441946FEF759BEBD
:103E3000BDEEE77AF8EEC76A17EE103A77EEE67A4B
:103E4000F7EE086A77EEA67A5A1EFDEEE77A17EECD
:103E5000903A13441A46FEF75ABEBDEEE77AF8EEE2
:103E6000C76A17EE103A77EEE67AF7EE086A77EE51
:103E7000A67A591EFDEEE77A17EE903A0B441946E2
:103E8000FEF75EBEBDEEE77AF8EEC76A17EE103AAF
:103E900077EEE67AF7EE086A77EEA67A5A1EFDEE1E
:103EA000E77A17EE903A13441A46FEF75FBEBDEE6E
:103EB000E77AF8EEC76A17EE103A77EEE67AF7EE91
:103EC000086A77EEA67A591EFDEEE77A17EE903A69
:103ED0000B441946FEF763BEBDEEE77AF8EEC76AFB
:103EE00017EE103A77EEE67AF7EE086A77EEA67AE2
:103EF0005A1EFDEEE77A17EE903A13441A46FEF783
:103F000064BEBDEEE77AF8EEC76A17EE103A77EEB8
:103F1000E67AF7EE086A77EEA67A591EFDEEE77AA2
:103F200017EE903A0B441946FEF768BEBDEEE77AED
:103F3000F8EEC76A17EE103A77EEE67AF7EE086AFF
:103F400077EEA67A5A1EFDEEE77A17EE903A134402
:103F50001A46FEF769BEBDEEE77AF8EEC76A17EEBD
:103F6000103A77EEE67AF7EE086A77EEA67A591EEF
:103F7000FDEEE77A17EE903A0B441946FEF76DBE58
:103F8000BDEEE77AF8EEC76A17EE103A77EEE67AFA
:103F9000F7EE086A77EEA67A5A1EFDEEE77A17EE7C
:103FA000903A13441A46FEF76EBEBDEEE77AF8EE7D
:103FB000C76A17EE103A77EEE67AF7EE086A77EE00
:103FC000A67A591EFDEEE77A17EE903A0B44194691
:103FD000FEF772BEBDEEE77AF8EEC76A17EE103A4A
:103FE00077EEE67AF7EE086A77EEA67A5A1EFDEECD
:103FF000E77A17EE903A13441A46FEF773BEBDEE09
:10400000E77AF8EEC76A17EE103A77EEE67AF7EE3F
:10401000086A77EEA67A591EFDEEE77A17EE903A17
:104020000B441946FEF777BEBDEEE77AF8EEC76A95
:1040300017EE103A77EEE67AF7EE086A77EEA67A90
:104040005A1EFDEEE77A17EE903A13441A46FEF731
:1040500078BEF1EE677ABDEEE77AF8EEC76A17EE42
:10406000103A77EEE67AF7EE086A77EEA67A591EEE
:10407000FDEEE77A17EE903A0B441946FEF776BE4E
:10408000BDEEE77AF8EEC76A17EE103A77EEE67AF9
:10409000F7EE086A77EEA67A5A1EFDEEE77A17EE7B
:1040A000903A13441A46FEF777BEBDEEE77AF8EE73
:1040B000C76A17EE103A77EEE67AF7EE086A77EEFF
:1040C000A67A591EFDEEE77A17EE903A0B44194690
:1040D000FEF77BBEBDEEE77AF8EEC76A17EE103A40
:1040E00077EEE67AF7EE086A77EEA67A5A1EFDEECC
:1040F000E77A17EE903A13441A46FEF77CBEBDEEFF
:10410000E77AF8EEC76A17EE103A77EEE67AF7EE3E
:10411000086A77EEA67A591EFDEEE77A17EE903A16
:104120000B441946FEF77CBEBDEEE77AF8EEC76A8F
:1041300017EE103A77EEE67AF7EE086A77EEA67A8F
:104140005A1EFDEEE77A17EE903A13441A46FEF730
:104150007DBEBDEEE77AF8EEC76A17EE103A77EE4D
:10416000E67AF7EE086A77EEA67A591EFDEEE77A50
:1041700017EE903A0B441946FEF77FBEBDEEE77A84
:10418000F8EEC76A17EE103A77EEE67AF7EE086AAD
:1041900077EEA67A5A1EFDEEE77A17EE903A1344B0
:1041A0001A46FEF780BEBDEEE77AF8EEC76A17EE54
:1041B000103A77EEE67AF7EE086A77EEA67A591E9D
:1041C000FDEEE77A17EE903A0B441946FEF784BEEF
:1041D000BDEEE77AF8EEC76A17EE103A77EEE67AA8
:1041E000F7EE086A77EEA67A5A1EFDEEE77A17EE2A
:1041F000903A13441A46FEF785BEBDEEE77AF8EE14
:10420000C76A17EE103A77EEE67AF7EE086A77EEAD
:10421000A67A591EFDEEE77A17EE903A0B4419463E
:10422000FEF789BEBDEEE77AF8EEC76A17EE103AE0
:1042300077EEE67AF7EE086A77EEA67A5A1EFDEE7A
:10424000E77A17EE903A13441A46FEF786BEBDEEA3
:10425000E77AF8EEC76A17EE103A77EEE67AF7EEED
:10426000086A77EEA67A591EFDEEE77A17EE903AC5
:104270000B441946FEF78ABEBDEEE77AF8EEC76A30
:1042800017EE103A77EEE67AF7EE086A77EEA67A3E
:104290005A1EFDEEE77A17EE903A13441A46FEF7DF
:1042A0008BBEBDEEE77AF8EEC76A17EE103A77EEEE
:1042B000E67AF7EE086A77EEA67A591EFDEEE77AFF
:1042C00017EE903A0B441946FEF78FBEBDEEE77A23
:1042D000F8EEC76A17EE103A77EEE67AF7EE086A5C
:1042E00077EEA67A5A1EFDEEE77A17EE903A13445F
:1042F0001A46FEF790BEBDEEE77AF8EEC76A17EEF3
:10430000103A77EEE67AF7EE086A77EEA67A591E4B
:10431000FDEEE77A17EE903A0B441946FEF794BE8D
:10432000BDEEE77AF8EEC76A17EE103A77EEE67A56
:10433000F7EE086A77EEA67A5A1EFDEEE77A17EED8
:10434000903A13441A46FEF795BEBDEEE77AF8EEB2
:10435000C76A17EE103A77EEE67AF7EE086A77EE5C
:10436000A67A591EFDEEE77A17EE903A0B441946ED
:10437000FEF799BEBDEEE77AF8EEC76A17EE103A7F
:1043800077EEE67AF7EE086A77EEA67A5A1EFDEE29
:10439000E77A17EE903A13441A46FEF79ABEBDEE3E
:1043A000E77AF8EEC76A17EE103A77EEE67AF7EE9C
:1043B000086A77EEA67A591EFDEEE77A17EE903A74
:1043C0000B441946FEF79EBEBDEEE77AF8EEC76ACB
:1043D00017EE103A77EEE67AF7EE086A77EEA67AED
:1043E0005A1EFDEEE77A17EE903A13441A46FEF78E
:1043F0009FBEBDEEE77AF8EEC76A17EE103A77EE89
:10440000E67AF7EE086A77EEA67A591EFDEEE77AAD
:1044100017EE903A0B441946FEF7A3BEBDEEE77ABD
:10442000F8EEC76A17EE103A77EEE67AF7EE086A0A
:1044300077EEA67A5A1EFDEEE77A17EE903A13440D
:104440001A46FEF7A4BEBDEEE77AF8EEC76A17EE8D
:10445000103A77EEE67AF7EE086A77EEA67A591EFA
:10446000FDEEE77A17EE903A0B441946FEF7A8BE28
:10447000BDEEE77AF8EEC76A17EE103A77EEE67A05
:10448000F7EE086A77EEA67A5A1EFDEEE77A17EE87
:10449000903A13441A46FEF7A9BEBDEEE77AF8EE4D
:1044A000C76A17EE103A77EEE67AF7EE086A77EE0B
:1044B000A67A591EFDEEE77A17EE903A0B4419469C
:1044C000FEF7ADBEBDEEE77AF8EEC76A17EE103A1A
:1044D00077EEE67AF7EE086A77EEA67A5A1EFDEED8
:1044E000E77A17EE903A13441A46FEF7AEBEBDEED9
:1044F000E77AF8EEC76A17EE103A77EEE67AF7EE4B
:10450000086A77EEA67A591EFDEEE77A17EE903A22
:104510000B441946FEF7B2BEBDEEE77AF8EEC76A65
:1045200017EE103A77EEE67AF7EE086A77EEA67A9B
:104530005A1EFDEEE77A17EE903A13441A46FEF73C
:10454000DFBEBDEEE77AF8EEC76A17EE103A77EEF7
:10455000E67AF7EE086A77EEA67A591EFDEEE77A5C
:1045600017EE903A0B441946FEF7E3BEBDEEE77A2C
:10457000F8EEC76A17EE103A77EEE67AF7EE086AB9
:1045800077EEA67A5A1EFDEEE77A17EE903A1344BC
:104590001A46FEF7E4BEBDEEE77AF8EEC76A17EEFC
:1045A000103A77EEE67AF7EE086A77EEA67A591EA9
:1045B000FDEEE77A17EE903A0B441946FEF7E8BE97
:1045C000BDEEE77AF8EEC76A17EE103A77EEE67AB4
:1045D000F7EE086A77EEA67A5A1EFDEEE77A17EE36
:1045E000903A13441A46FEF7E9BEBDEEE77AF8EEBC
:1045F000C76A17EE103A77EEE67AF7EE086A77EEBA
:10460000A67A591EFDEEE77A17EE903A0B4419464A
:10461000FEF7EDBEBDEEE77AF8EEC76A17EE103A88
:1046200077EEE67AF7EE086A77EEA67A5A1EFDEE86
:10463000E77A17EE903A13441A46FEF7EEBEBDEE47
:10464000E77AF8EEC76A17EE103A77EEE67AF7EEF9
:10465000086A77EEA67A591EFDEEE77A17EE903AD1
:104660000B441946FEF7F2BEBDEEE77AF8EEC76AD4
:1046700017EE103A77EEE67AF7EE086A77EEA67A4A
:104680005A1EFDEEE77A17EE903A13441A46FEF7EB
:10469000F3BEBDEEE77AF8EEC76A17EE103A77EE92
:1046A000E67AF7EE086A77EEA67A591EFDEEE77A0B
:1046B00017EE903A0B441946FEF7F7BEBDEEE77AC7
:1046C000F8EEC76A17EE103A77EEE67AF7EE086A68
:1046D00077EEA67A5A1EFDEEE77A17EE903A13446B
:1046E0001A46FEF7F8BEBDEEE77AF8EEC76A17EE97
:1046F000103A77EEE67AF7EE086A77EEA67A591E58
:10470000FDEEE77A17EE903A0B441946FEF7FCBE31
:10471000BDEEE77AF8EEC76A17EE103A77EEE67A62
:10472000F7EE086A77EEA67A5A1EFDEEE77A17EEE4
:10473000903A13441A46FEF7FDBEBDEEE77AF8EE56
:10474000C76A17EE103A77EEE67AF7EE086A77EE68
:10475000A67A591EFDEEE77A17EE903A0B441946F9
:10476000FEF701BFBDEEE77AF8EEC76A17EE103A22
:1047700077EEE67AF7EE086A77EEA67A5A1EFDEE35
:10478000E77A17EE903A13441A46FEF702BFBDEEE1
:10479000E77AF8EEC76A17EE103A77EEE67AF7EEA8
:1047A000086A77EEA67A591EFDEEE77A17EE903A80
:1047B0000B441946FEF706BFBDEEE77AF8EEC76A6E
:1047C00017EE103A77EEE67AF7EE086A77EEA67AF9
:1047D0005A1EFDEEE77A17EE903A13441A46FEF79A
:1047E00007BFBDEEE77AF8EEC76A17EE103A77EE2C
:1047F000E67AF7EE086A77EEA67A591EFDEEE77ABA
:1048000017EE903A0B441946FEF70BBFBDEEE77A60
:10481000F8EEC76A17EE103A77EEE67AF7EE086A16
:1048200077EEA67A5A1EFDEEE77A17EE903A134419
:104830001A46FEF70CBFBDEEE77AF8EEC76A17EE30
:10484000103A77EEE67AF7EE086A77EEA67A591E06
:10485000FDEEE77A17EE903A0B441946FEF710BFCB
:10486000BDEEE77AF8EEC76A17EE103A77EEE67A11
:10487000F7EE086A77EEA67A5A1EFDEEE77A17EE93
:10488000903A13441A46FEF711BFBDEEE77AF8EEF0
:10489000C76A17EE103A77EEE67AF7EE086A77EE17
:1048A000A67A591EFDEEE77A17EE903A0B441946A8
:1048B000FEF715BFBDEEE77AF8EEC76A17EE103ABD
:1048C00077EEE67AF7EE086A77EEA67A5A1EFDEEE4
:1048D000E77A17EE903A13441A46FEF716BFBDEE7C
:1048E000E77AF8EEC76A17EE103A77EEE67AF7EE57
:1048F000086A77EEA67A591EFDEEE77A17EE903A2F
:104900000B441946FEF71ABFBDEEE77AF8EEC76A08
:1049100017EE103A77EEE67AF7EE086A77EEA67AA7
:104920005A1EFDEEE77A17EE903A13441A46FEF748
:104930001BBFBDEEE77AF8EEC76A17EE103A77EEC6
:10494000E67AF7EE086A77EEA67A591EFDEEE77A68
:1049500017EE903A0B441946FEF71FBFBDEEE77AFB
:10496000F8EEC76A17EE103A77EEE67AF7EE086AC5
:1049700077EEA67A5A1EFDEEE77A17EE903A1344C8
:104980001A46FEF720BFBDEEE77AF8EEC76A17EECB
:10499000103A77EEE67AF7EE086A77EEA67A591EB5
:1049A000FDEEE77A17EE903A0B441946FEF724BF66
:1049B000BDEEE77AF8EEC76A17EE103A77EEE67AC0
:1049C000F7EE086A77EEA67A5A1EFDEEE77A17EE42
:1049D000903A13441A46FEF725BFBDEEE77AF8EE8B
:1049E000C76A17EE103A77EEE67AF7EE086A77EEC6
:1049F000A67A591EFDEEE77A17EE903A0B44194657
:104A0000FEF729BFBDEEE77AF8EEC76A17EE103A57
:104A100077EEE67AF7EE086A77EEA67A5A1EFDEE92
:104A2000E77A17EE903A13441A46FEF72ABFBDEE16
:104A3000E77AF8EEC76A17EE103A77EEE67AF7EE05
:104A4000086A77EEA67A591EFDEEE77A17EE903ADD
:104A50000B441946FEF72EBFBDEEE77AF8EEC76AA3
:104A600017EE103A77EEE67AF7EE086A77EEA67A56
:104A70005A1EFDEEE77A17EE903A13441A46FEF7F7
:104A80002FBFBDEEE77AF8EEC76A17EE103A77EE61
:104A9000E67AF7EE086A77EEA67A591EFDEEE77A17
:104AA00017EE903A0B441946FEF733BFBDEEE77A96
:104AB000F8EEC76A17EE103A77EEE67AF7EE086A74
:104AC00077EEA67A5A1EFDEEE77A17EE903A134477
:104AD0001A46FEF734BFBDEEE77AF8EEC76A17EE66
:104AE000103A77EEE67AF7EE086A77EEA67A591E64
:104AF000FDEEE77A17EE903A0B441946FEF738BF01
:104B0000BDEEE77AF8EEC76A17EE103A77EEE67A6E
:104B1000F7EE086A77EEA67A5A1EFDEEE77A17EEF0
:104B2000903A13441A46FEF739BFBDEEE77AF8EE25
:104B3000C76A17EE103A77EEE67AF7EE086A77EE74
:104B4000A67A591EFDEEE77A17EE903A0B44194605
:104B5000FEF73DBFBDEEE77AF8EEC76A17EE103AF2
:104B600077EEE67AF7EE086A77EEA67A5A1EFDEE41
:104B7000E77A17EE903A13441A46FEF73EBFBDEEB1
:104B8000E77AF8EEC76A17EE103A77EEE67AF7EEB4
:104B9000086A77EEA67A591EFDEEE77A17EE903A8C
:104BA0000B441946FEF742BFBDEEE77AF8EEC76A3E
:104BB00017EE103A77EEE67AF7EE086A77EEA67A05
:104BC0005A1EFDEEE77A17EE903A13441A46FEF7A6
:104BD00043BFBDEEE77AF8EEC76A17EE103A77EEFC
:104BE000E67AF7EE086A77EEA67A591EFDEEE77AC6
:104BF00017EE903A0B441946FEF747BFBDEEE77A31
:104C0000F8EEC76A17EE103A77EEE67AF7EE086A22
:104C100077EEA67A5A1EFDEEE77A17EE903A134425
:104C20001A46FEF748BFBDEEE77AF8EEC76A17EE00
:104C3000103A77EEE67AF7EE086A77EEA67A591E12
:104C4000FDEEE77A17EE903A0B441946FEF74CBF9B
:104C5000BDEEE77AF8EEC76A17EE103A77EEE67A1D
:104C6000F7EE086A77EEA67A5A1EFDEEE77A17EE9F
:104C7000903A13441A46FEF74DBFBDEEE77AF8EEC0
:104C8000C76A17EE103A77EEE67AF7EE086A77EE23
:104C9000A67A591EFDEEE77A17EE903A0B441946B4
:104CA000FEF780BFBDEEE77AF8EEC76A17EE103A5E
:104CB00077EEE67AF7EE086A77EEA67A5A1EFDEEF0
:104CC000E77A17EE903A13441A46FEF781BFBDEE1D
:104CD000E77AF8EEC76A17EE103A77EEE67AF7EE63
:104CE000086A77EEA67A591EFDEEE77A17EE903A3B
:104CF0000B441946FEF785BFBDEEE77AF8EEC76AAA
:104D000017EE103A77EEE67AF7EE086A77EEA67AB3
:104D10005A1EFDEEE77A17EE903A13441A46FEF754
:104D200086BFBDEEE77AF8EEC76A17EE103A77EE67
:104D3000E67AF7EE086A77EEA67A591EFDEEE77A74
:104D400017EE903A0B441946FEF78ABFBDEEE77A9C
:104D5000F8EEC76A17EE103A77EEE67AF7EE086AD1
:104D600077EEA67A5A1EFDEEE77A17EE903A1344D4
:104D70001A46FEF78BBFBDEEE77AF8EEC76A17EE6C
:104D8000103A77EEE67AF7EE086A77EEA67A591EC1
:104D9000FDEEE77A17EE903A0B441946FEF78FBF07
:104DA000BDEEE77AF8EEC76A17EE103A77EEE67ACC
:104DB000F7EE086A77EEA67A5A1EFDEEE77A17EE4E
:104DC000903A13441A46FEF790BF00BF70477047F1
:104DD000704730B4C56844686A100346ED0704EBB9
:104DE00002009B6848BFA25830BC48BFD358184740
:104DF00043682BB183682BB9C06800F0010070478D
:104E0000184670470120704710B51021044624F061
:104E1000DFFD204610BD10B54FF4AC71044624F000
:104E2000D7FD204610BD00F58670884208B505D133
:104E300013F0ACFEBDE8084000F0F4BE08BD000071
:104E400038B5262204460D46002124F048FE2046AF
:104E5000FBF7B8FE064B23602B88E384FF23204634
:104E600084F82830294611F0D6FF204638BD00BF0F
:104E7000E00303082DE9F04F04468FB026460025D5
:104E800015F0F4F96F4BE56346F8403B26230EAF6F
:104E90001A462946304603934FF6FF7924F01FFE49
:104EA0003046FBF78FFE27F8089D674A226404F11D
:104EB0006C0BFF2204F1980A84F86620A566394637
:104EC0005846FFF7BDFF39465046ADF83090FFF722
:104ED000B7FF039B04F1C40829461A46404624F054
:104EE000FEFD4046FBF76EFE584BC4F8C430A4F8F4
:104EF000F090574BA4F804914FF47F02A4F8069168
:104F000004F58679C4F8EC30C4F8F450C4F8F820FD
:104F100084F8FC5084F8FD50A4F80051A4F8025124
:104F2000C4F808514846039311F04EFF494AC4F8AB
:104F30004821494AC4F85021C4F854512A46294608
:104F40003046C4F84C41FBF755FE30464FF4A07193
:104F5000FBF7CBFD3046F021FBF7C9FD4FF07F4258
:104F6000A26629462A465846FBF744FE394658466B
:104F7000ADF8305011F04FFF4C2250464521FBF761
:104F800039FE4FF0070339465046ADF8303011F086
:104F900042FF40465B227C21FBF72CFE2F4AA4F8FF
:104FA000F85004ADC4F8F4204146284611F06AF8E0
:104FB00095E8070004F5807C039B0C938CE80700C0
:104FC0004FF0070339464046ADF8343011F0A0FBEE
:104FD0004846B4228221FBF70DFE0323ADF82430AE
:104FE0000423ADF8283008230AAAADF82C30ADF818
:104FF000303009A90BAB4846009711F042FE0F2351
:10500000A4F844311623251DA4F8463104F5A473F1
:10501000C4F83431314628460CF046FB5946284640
:105020000CF042FB514628460CF03EFB4146284618
:105030000CF03AFB284649460CF036FB20460FB0F0
:10504000BDE8F08FF4B6020800020308400103082F
:10505000E8AE0208DCB60208274E00080000FFFF99
:1050600070477047704730B4C56844686A1003469B
:10507000ED0704EB02009B6848BFA25830BC48BF54
:10508000D358184743682BB183682BB9C06800F028
:1050900001007047184670470120704710B5102175
:1050A000044624F095FC204610BD10B54FF4B071B5
:1050B000044624F08DFC204610BD00F58A7088421D
:1050C00008B505D113F062FDBDE8084000F0EABC68
:1050D00008BD00002DE9F04F04468DB0A146002523
:1050E00015F0C4F8754BE56349F8403B04F16C07D3
:1050F0004FF0260B4846FCF7FBFA4FF6FF7A5A466C
:10510000294638460DF13008ADF828A024F0E7FC18
:105110003846FBF757FD6A4BE36638F8083DA4F8BC
:10512000923004F1980684F894A04146384611F074
:1051300072FE5A462946304624F0D1FC3046FBF731
:1051400041FD604BC4F898305F4BC4F8C03004F1A7
:10515000E00B4FF47F03A4F8C4A0C4F8C850C4F80F
:10516000CC3084F8D05084F8D150A4F8D450A4F8AE
:10517000D650A4F8D8A0A4F8DAA0C4F8DC50584659
:10518000FCF7B6FA04F58A7A504BC4F8E030C4F85C
:105190000C51A4F81051504611F016FE4C4BC4F8B7
:1051A00050314C4BC4F85831F023C4F85C51009393
:1051B0002A464FF4A07329464846C4F85441FCF7E8
:1051C00084FA4FF07F42A26629462A463846FBF70A
:1051D00011FD41463846ADF8285011F01CFE30460E
:1051E0001B221C21FBF706FD4FF07F42A4F8CC5098
:1051F00002ADC4F8C8203146284610F043FF95E8B8
:10520000070004F1D40383E807002F4B0A934146BB
:1052100014233046ADF82C3011F07AFA7023009345
:1052200058464FF484733A221C21FCF74EFA4FF093
:105230007F43C4F8083103F50743BD33C4F80C318C
:105240000523A4F810315046B4228221FBF7D2FC8A
:105250000323ADF81C300423ADF82030082308AA3E
:10526000ADF82430ADF8283007A909AB5046CDF889
:10527000008011F006FD0F23A4F84C311623251DE4
:10528000A4F84E3104F5A873C4F83C3149462846C9
:105290000CF00AFA394628460CF006FA3146284640
:1052A0000CF002FA594628460CF0FEF92846514601
:1052B0000CF0FAF920460DB0BDE8F08F40B70208B7
:1052C000E003030840010308E8AE0208CC0203082B
:1052D00028B70208BB50000870477047704741600C
:1052E00070477047012303727047704770477047DB
:1052F00070477047704770477047704770477047F6
:105300007047704770470000044B1A880B68524280
:1053100008465B6D12B20021184700BF8838012093
:1053200030B4C56844686A100346ED0704EB020018
:105330009B6848BFA25830BC48BFD3581847436841
:105340002BB183682BB9C06800F001007047184684
:1053500070470120704700000B68034A5B6DB2F98B
:1053600000200846002118478838012030B4C5685D
:1053700044686A100346ED0704EB02009B6848BFCF
:10538000A25830BC48BFD358184743682BB1836834
:105390002BB9C06800F00100704718467047012023
:1053A00070470000044B08461988036849425B6D4A
:1053B000002209B2184700BF8638012030B4C56802
:1053C00044686A100346ED0704EB02009B6848BF7F
:1053D000A25830BC48BFD358184743682BB18368E4
:1053E0002BB9C06800F001007047184670470120D3
:1053F000704700000B68084602495B6DB1F9001068
:10540000002218478638012030B4C56844686A1005
:105410000346ED0704EB02009B6848BFA25830BC6E
:1054200048BFD358184743682BB183682BB9C0686D
:1054300000F001007047184670470120704710B413
:10544000C468416862100346E40701EB02009B68F0
:1054500048BF8A585DF8044B48BFD3581847436883
:105460002BB183682BB9C06800F001007047184663
:1054700070470120704710B51421044624F0A8FAA3
:10548000204610BD10B50C21044624F0A1FA204698
:1054900010BD10B54FF4AC71044624F099FA2046C3
:1054A00010BD10B51021044624F092FA204610BD1C
:1054B00010B55421044624F08BFA204610BD10B5D7
:1054C0001021044624F084FA204610BD10B5542162
:1054D000044624F07DFA204610BD10B51021044684
:1054E00024F076FA204610BD10B55421044624F06D
:1054F0006FFA204610BD10B51021044624F068FA5A
:10550000204610BD10B55421044624F061FA20460F
:1055100010BD10B51021044624F05AFA204610BDE3
:1055200070B50446B2B0C0221D4902A824F0CCFADE
:10553000237C33B91B4B1B781BB113F027FB13F0F3
:105540007FFB237C2F2B26D80325013D25D0237CF0
:105550002F2B22D832AA02EB8303608953F8C06C48
:10556000E389A18996FBF3F203FB126313FB00F3BB
:1055700012FB01F2ADF804006068ADF80610ADF85A
:105580000030ADF80220036869461B699847237C08
:1055900001332374D9E70123237232B070BD00BFF9
:1055A00028A902089038012008B513F0EFFABDE8E9
:1055B000084013F023BF10B4826B8A420B4609D017
:1055C0000A68546DB0F950200021184623465DF852
:1055D000044B18475DF8044B704710B4826B8A4245
:1055E0000B4609D00A68546DB0F9502000211846C6
:1055F00023465DF8044B18475DF8044B704710B420
:10560000826B8A420B4609D00A68B0F95010546D7B
:105610001846002223465DF8044B18475DF8044BFA
:10562000704710B4826B8A420B4609D00A68B0F901
:105630005010546D1846002223465DF8044B18475D
:105640005DF8044B70470000054B1B783BB1436885
:105650002BB11A6800F10C01526E184610477047C2
:1056600091380120054B1B783BB143682BB11A6878
:1056700000F10C01526E1846104770479138012016
:10568000054B1B783BB143682BB11A6800F10C0144
:10569000526E18461047704791380120054B1B7811
:1056A0003BB143682BB11A6800F10C01526E1846E9
:1056B000104770479138012010B51F4B1B780446E6
:1056C00013B90123037210BD90F84D0094F84C30CB
:1056D0000130C0B2984284F84D0024D8B4F94E206D
:1056E000002114F075FF83B213F0010221D04FF6B0
:1056F000FF710028D8BF0A461344A4F85030B4F80C
:105700005010238AC91A09B2A4F8501004F10C00F1
:10571000002214F0B9FA6068036804F13C01DB6F01
:10572000BDE81040184701232372002384F84D3050
:10573000C9E7A4F85000E2E79138012010B51F4BEB
:105740001B78044613B90123037210BD90F84D0075
:1057500094F84C300130C0B2984284F84D0024D8FF
:10576000B4F94E20002114F033FF83B213F001028C
:1057700021D04FF6FF710028D8BF0A461344A4F881
:105780005030B4F85010238AC91A09B2A4F8501046
:1057900004F10C00002214F077FA6068036804F149
:1057A0003C01DB6FBDE81040184701232372002342
:1057B00084F84D30C9E7A4F85000E2E791380120A1
:1057C00010B51F4B1B78044613B90123037210BD9B
:1057D00090F84D0094F84C300130C0B2984284F8F3
:1057E0004D0024D8B4F94E20002114F0F1FE83B20C
:1057F00013F0010221D04FF6FF710028D8BF0A46EE
:105800001344A4F85030B4F85020638AD21A12B26C
:1058100004F10C00A4F85020002114F035FA60685F
:10582000036804F13C01DB6FBDE810401847012319
:105830002372002384F84D30C9E7A4F85000E2E752
:105840009138012010B51F4B1B78044613B9012372
:10585000037210BD90F84D0094F84C300130C0B286
:10586000984284F84D0024D8B4F94E20002114F059
:10587000AFFE83B213F0010221D04FF6FF71002872
:10588000D8BF0A461344A4F85030B4F85020638AB5
:10589000D21A12B204F10C00A4F85020002114F026
:1058A000F3F96068036804F13C01DB6FBDE8104068
:1058B000184701232372002384F84D30C9E7A4F868
:1058C0005000E2E7913801201FB50C4B1B780446CD
:1058D0008BB10B4B1C22CDE900300123CDE9022313
:1058E000406803686946DB6F98476068036804F1A5
:1058F0000C011B6E984704B010BD00BF9138012009
:10590000ECB802081FB50C4B1B7804468BB10B4B4F
:105910001C22CDE900300123CDE902234068036851
:105920006946DB6F98476068036804F10C011B6EE1
:10593000984704B010BD00BF91380120A8B80208F4
:105940001FB50C4B1B7804468BB10B4B1C22CDE9C9
:1059500000300123CDE90223406803686946DB6F0C
:1059600098476068036804F10C011B6E984704B007
:1059700010BD00BF9138012020B802081FB50C4BA4
:105980001B7804468BB10B4B1C22CDE90030012360
:10599000CDE90223406803686946DB6F9847606879
:1059A000036804F10C011B6E984704B010BD00BFE2
:1059B0009138012064B8020870B5036804469B6BF7
:1059C00015469847236829462046DB6BBDE87040A2
:1059D00018470000F8B5044617460E4613F066F95E
:1059E000144BC4F854611C60134E144B2360002503
:1059F0003068134BC4F83851C4F83C51C4F84031F6
:105A0000C4F84451C4F84851C4F84C51C4F850711A
:105A1000036829469B689847284604F0E5FD3368EB
:105A200093F876200AB1D86C00B998681BF039FA5F
:105A30002046F8BD00390120943801208CB70208B7
:105A400074B70208064BC0F848310023C0F84C3147
:105A500000F5A073C0F84401C0F83C31704700BFA6
:105A6000855D0008064BC0F848310023C0F84C3172
:105A700000F5A073C0F84401C0F83C31704700BF86
:105A800011610008064BC0F848310023C0F84C31C2
:105A900000F5A073C0F84401C0F83C31704700BF66
:105AA000256B0008064BC0F848310023C0F84C3184
:105AB00000F5A073C0F84401C0F83C31704700BF46
:105AC0006D620008064BC0F848310023C0F84C3125
:105AD00000F5A073C0F84401C0F83C31704700BF26
